:020000040800F2
:1000000050230020C9020008D52F0008CD2D00087C
:10001000512F0008B9210008593B000800000000DA
:10002000000000000000000000000000ED350008A6
:10003000BD21000800000000D73400080137000887
:10004000E3020008E3020008E3020008E3020008FC
:10005000E3020008E3020008512C0008812C00088C
:10006000E3020008E3020008E3020008E3020008DC
:10007000E3020008E3020008E3020008E3020008CC
:10008000E3020008E3020008E3020008E3020008BC
:10009000E3020008E3020008E3020008E3020008AC
:1000A000E3020008E3020008E3020008E30200089C
:1000B00065370008E3020008E3020008E3020008D5
:1000C000E3020008E3020008E3020008E30200087C
:1000D000E30200082D39000849390008E30200084E
:1000E000E3020008E3020008E3020008E30200085C
:1000F000E3020008E3020008E3020008E30200084C
:10010000E3020008E3020008E3020008E30200083B
:10011000E3020008E3020008E3020008E30200082B
:10012000E3020008E3020008E3020008E30200081B
:1001300000F002F800F0B8F80AA090E8000C824441
:100140008344AAF10107DA4501D100F0ADF8AFF21E
:10015000090EBAE80F0013F0010F18BFFB1A43F0A5
:1001600001031847FC5500001C56000010F8013B25
:100170000A4413F0030408BF10F8014B1D1108BF17
:1001800010F8015B641E05D010F8016B641E01F8C5
:10019000016BF9D1002D15D010F8014B03F00C03C1
:1001A0000C2BA1EB04040ABF10F8013BA4EB831451
:1001B000A4EB032405F1010314F8016B5B1E01F8A5
:1001C000016BF9D5914238BF10F8013BD1D370478C
:1001D0000023002400250026103A28BF78C1FBD850
:1001E000520728BF30C148BF0B6070476E2900F02E
:1001F0000284702900F04D85662904F08D856529FB
:1002000004F08A85672904F087856129AFF30080AF
:1002100003681B0A28BF41F08001692900F0E480CF
:10022000642900F0E180752900F0DE806F2900F07C
:10023000DB84782900F01985E92900F07584E42928
:1002400000F07284F52900F06F84EF2900F0D88463
:10025000F82900F018850368DB0928BF41F0800108
:10026000632901F01A80732901F01F80E32901F04E
:100270002A80F32901F02F80002070471FB59DE8E8
:10028000030000F0C7FA01F081FA04000020002109
:1002900004F016FD401C60600020002104F026FDE3
:1002A000E0601FBD10B510BD01F04BFA1146FFF71D
:1002B000E5FF04F09BF901F029FB03B4FFF7F2FF1F
:1002C00003BC01F057FB000009488047094800477C
:1002D000FEE7FEE7FEE7FEE7FEE7FEE7FEE7FEE7F6
:1002E000FEE7FEE704480549054A064B7047000053
:1002F0000537000831010008501D00205023002060
:10030000501F0020501F002070B5064600F062FA12
:10031000056806F10B0020F00704B4429CBF0020E2
:1003200070BD2B466A68BAB11068A04210D304F1C0
:10033000080188423CBF5068586007D351681019C3
:1003400041601168091B016058601460101D70BD88
:1003500013465268002AE7D12146284600F046FAA3
:100360000028DED170BD70B50446051F00F032FADA
:100370000068002C14BF446870BD002C18BFAC424C
:100380003CBF20466468F8D301680A18AA4218BF27
:10039000456003D12A680546114401602868411967
:1003A000A1421CBF6C6070BD61686960216808442F
:1003B000286070BD7CB51D4616460C00009001D02B
:1003C0002044401E074B7B442A4669460190304634
:1003D00000F02BFB05461CB10020694600F038FBFD
:1003E00028467CBD910600002DE9F0410646002418
:1003F00010687529314616A510D000F068FA00285B
:1004000002DA404213A507E031688A0701D512A538
:1004100002E0490704D511A5012401E000F060FACB
:1004200000210A2206F1240709E0B0FBF2FCB0FB30
:10043000F2F302FB1C00303078541846491C0028A7
:10044000F3D123462A463046BDE8F04100F07ABA9F
:10045000000000002D0000002B0000002000000024
:100460002DE9F05F894604464FF0000ADFF874B1C9
:10047000FB44C0F820A02046E1688847002874D0DB
:10048000252806D0D4E901219047206A401C20622B
:10049000F1E700265F462046E168884720280546A8
:1004A00007DB312D05D2781910F8200C08B106436E
:1004B000F1E7B00701D526F00406C4F81CA0002718
:1004C000C4F818A02A2D09D0284603F0A1FC38B39F
:1004D00004EB8708303DC8F8185019E059F8041BA0
:1004E000204604EB87029161E1688847012F0546A9
:1004F00018D1E069002820DA26F020061DE0D8F89F
:10050000180000EB800005EB40003038C8F81800F8
:100510002046E1688847054603F07AFC0028EED1C2
:10052000012F0AD02E2D08D12046E16888477F1C74
:100530000546022F46F02006C4DBA069002803DA36
:10054000404246F00106A061F00701D026F01006F7
:100550006C2D0BD0682D09D04C2D39D06A2D35D09B
:10056000742D35D07A2D33D016E038E0E1682F466F
:1005700020468847B842054609D16C2F26D04FF453
:100580008060E168064320468847054604E06C2FFA
:100590001AD04FF4807006430DB3A5F1410019281D
:1005A00002D8203546F400664A4629462046266091
:1005B0004E46FFF71BFE80B101280BD0F61D26F03A
:1005C000070000F1080956E74020E4E78020D8E75B
:1005D0000020D6E706F104094DE7284652E7206AD5
:1005E000BDE8F09FC05000000FB400B58DB010A959
:1005F000099000910B904FF0FF300A9000200C9072
:10060000064878440690064878446A4607900F9951
:1006100009A800F04FFB0DB05DF814FBCF060000F9
:10062000E70600002DE9FF5F4FF0000899461446E9
:1006300046469169D2E901A7DDF838B001988847AC
:10064000054659EA0B0005D009E0A1690198761C1E
:1006500088470546216A284688470028F5D1681C46
:1006600003D05FEACA7005D015E04FF0FF3004B048
:10067000BDE8F09F2068011D2160D0F800800AE0ED
:100680005FEACA7001D108F8015BA169761C019884
:100690007F1E88470546002F1ADD681C18D0B9F167
:1006A000000F0DD0E81705EBD060421120F01F00BD
:1006B00059F822102A1A012090400142E0D107E0A7
:1006C000BBF1000FDCD12846216A88470028D7D02B
:1006D000E16901988847BBF1000F07D1002E05DDC5
:1006E0005FEACA7002D1002188F80010A068B84201
:1006F00003DDBBF1000F03D017B16FF00100B6E7C7
:100700003046B4E770B5064600F068F80468054660
:1007100030460A22002100F0FDFA2C6070BD30B591
:1007200005460B462A4613F8014B12F8010B08B197
:10073000A042F8D01CB1002802D06D1CF1E7284679
:1007400030BD10B5431C02E010F8011B71B18107E8
:10075000FAD14FF0013202C88C1A8C4314EAC2114C
:10076000F9D0C01A0A0603D0C01E10BDC01A10BDB1
:100770000A0401D0801E10BD0902FCD0401E10BD2D
:100780004FF0000200B5134694469646203922BF2A
:10079000A0E80C50A0E80C50B1F12001BFF4F7AF75
:1007A000090728BFA0E80C5048BF0CC05DF804EB57
:1007B000890028BF40F8042B08BF704748BF20F8C5
:1007C000022B11F0804F18BF00F8012B70477047C3
:1007D0007047704700487047F81C00200048704779
:1007E000F01C0020704770477047704738B50446CA
:1007F0000A4600206946AFF30080002808BF38BDD4
:1008000002460099204600F0C9FA012038BD0120B7
:1008100000F08FBFF8B5AFF30080054600200C460E
:10082000102000BF0646A819A0420DD932466946DD
:100830000020AFF30080070008BF00F07AFF0098A7
:10084000A04218BF0546C419FFF7C4FF056007465C
:10085000F01D20F007004619284600F00AF8B442BF
:1008600008BFF8BDA21B31463868BDE8F84000F06B
:1008700095BA00210160C0E901107047102070474F
:1008800070B5044685690068C10601D5302600E0D0
:100890002026C00707D070BDD4E90121304690471B
:1008A000206A401C20626D1EF6D570BD70B50446EE
:1008B00085690078C00707D170BDD4E901212020E7
:1008C0009047206A401C20626D1EF6D570BD0968F5
:1008D0004A0501D540B27047C905FCD500B2704742
:1008E00009684A0501D5C0B27047C905FCD580B278
:1008F000704770B50C460546012A05D02878800659
:1009000000D5EA69002302E0012305E05B1C934265
:1009100002D2E05C0028F9D1A869E618C01AA861E3
:10092000286A184428622846FFF7AAFF04E0D5E9A0
:10093000012114F8010B9047B442F8D32846FFF781
:10094000B5FF70BD2DE9F0470D4699469246044625
:1009500000F124080168880604D5E06921F010013F
:10096000216000E00120A84201DD471B00E00027D4
:10097000A1697A1902EB0900081AA0612078C00663
:1009800002D42046FFF77CFF002608E0D4E90121CD
:100990001AF806009047206A401C761C20624E45DB
:1009A000F4DB2078C0060AD52046FFF769FF06E091
:1009B000D4E9012130209047206A401C2062381E73
:1009C000A7F10107F4DC07E0D4E9012118F80500DC
:1009D0009047206A401C2062281EA5F10105F3DC27
:1009E0002046FFF763FF2078000602D50220BDE80D
:1009F000F0870120FBE711680268006A530501D502
:100A000008700AE0D30501D5088006E0130603D577
:100A1000C217C1E9000200E0086001207047000031
:100A200001694A1C02610878704700B58FB0CDE9B2
:100A300001310021059105497944CDE903101146A2
:100A40006846FFF70DFD0FB000BD0000E5FFFFFF9A
:100A50000A6802F8010B0A607047D1E900239A4244
:100A600002D2531C0B601070704700002DE9FF5F2D
:100A700015468A460446DFF8AC80F8440027D8E9DA
:100A800000103E46CDE9001010E03AF816106A4614
:100A900002A800F02EFE411C07D02178890603D55C
:100AA000E269391891420DD80744761C20788006F7
:100AB00002D5E069B84205DDAE42E6DB3AF8160041
:100AC0000028E2D1A069C01BA0612046FFF7D8FE34
:100AD000D8E90010CDE90010002017E03AF818100E
:100AE0006A4602A800F005FEB0F1FF3F81460BD038
:100AF00000250DF1080B05E0D4E901211BF80500E4
:100B000090476D1C4D45F7D308F10100B042804677
:100B1000E4DB206A384420622046FFF7C7FEBDE8C8
:100B2000FF9F0000CA4A00002DE9F0418046D21D17
:100B300022F007020025D2E90002F52915A614D0FB
:100B4000011E72F1000106DA0023D0EB030063EB13
:100B5000020211A608E0D8F800108B0701D50FA6F5
:100B600002E0490701D50EA601251146002408F12F
:100B7000240704E000F02CF930323A55641C50EAA6
:100B80000102F7D12B46324621464046BDE8F041EE
:100B9000FFF7D8BE000000002D0000002B00000071
:100BA0002000000030B4002100F1240408E002F02D
:100BB0000705D208303542EA4372DB086554491C08
:100BC00052EA0305F3D10468002310A2250708D5D3
:100BD00004F020040C4304D0C46901230CA2641E59
:100BE000C46130BCFFF7AEBE10B5044621461068A4
:100BF000FFF776FE02462046BDE810400023D1E70D
:100C0000D21D22F00701D1E90023CBE7000000004C
:100C100030000000F0B40D460188090502D5214CD2
:100C20007C4402E01F4C7C440E34002100F1240679
:100C300008E002F00F071209E75D42EA03721B09A0
:100C40007754491C52EA0307F3D1027800231207B4
:100C500004D5702D06D009B1022311342246F0BC10
:100C6000FFF770BE01231034F8E770B504460D4657
:100C700021461068FFF734FE024629462046BDE8AB
:100C800070400023C6E7D21D22F00703D3E90023FA
:100C9000C0E70368126843F0200303600823C361C0
:100CA0000023B7E72C490000026811441378016063
:100CB00018467047D1600549794451610449794427
:100CC000116200211161114600F00ABBEDFFFFFF28
:100CD00099010000426842B1016811F8013B23B15B
:100CE000521EC0E90012184670470121C160881EDB
:100CF000704742685AB1C368016843B983688B4240
:100D000005D0491E521CC0E90012002070474FF068
:100D1000FF3070472DE9F04791460F468046044664
:100D2000002614F8015B2DB100F030F80068405D3A
:100D3000C007F6D12B2D02D02D2D18D0641E4A46A7
:100D40003946204600F086FC27B13968A14201D11E
:100D5000C7F800804FF0020471050BD5404200280F
:100D600003DDFFF73BFD0460A007BDE8F08746F414
:100D70008066E4E70028F8DAFFF730FD04606FF0E2
:100D80000040F2E700487047F01C002010B500F06A
:100D9000FDFC001D10BD00BF293F00000346406858
:100DA0008C46002818BF88423CBF03464068F8D3F1
:100DB00018681844884207D00CF1030020F007009F
:100DC000001D411A521A0146081D0A60FFF7CBBAEE
:100DD00030B5B0F10A024FEA900E71F100034EEA0D
:100DE000817EB0EB0E0061EB91014FEA101E4EEADE
:100DF000017E10EB0E0041EB11114FEA102E4EEA6E
:100E0000016E10EB0E0041EB11214FEA104E4EEA3D
:100E1000014E10EB0E0041EB1141401841F1000171
:100E20004FEAD00040EA41704FEAD10110EB800553
:100E30004FEA810444EA907444EB01046D1944EBD9
:100E40000404521BA3414FF0000348BF0A3200D5EF
:100E500030BD401C41F1000130BD10B50446FFF724
:100E600095FF0068005D00F0010010BD70472DE99E
:100E7000FF4F0C461E464FF0FF378BB0D2E9000102
:100E8000DDF860800A908A46C1F30A5505B93D46EF
:100E9000002108464FF00000BAF1000F00F44000B6
:100EA00005DA00EB80004FF4400101EA50004FEA00
:100EB0009059B9F1010F00DDB9460A9850EA4A008D
:100EC0000ED044F61050A5F2FF3545432F14B8F16B
:100ED000000F1ED07542291E1EDDC9F100021CE064
:100EE000B8F1010F4FF0000001D0302103E0F243D0
:100EF00005E02154401CB042FBDB304600220021BB
:100F000021540B99C1F80880C1E900200FB0BDE859
:100F1000F08FBD1B6D1CDEE74A4600DA694206A869
:100F200000F086FC06AB93E8070003AB83E80700FC
:100F300050460A9900F085FD8DE80700A0F50050A5
:100F40001F3800900398002D09DD42F21F014A4628
:100F5000084403A90390684600F0E4FF08E0A0F508
:100F600000504A461F3803A90390684600F0EEFF80
:100F70008DE807000004000C03D04FF0FF3041085B
:100F800000E01046B8F1000F03D000220092154691
:100F90001EE0751E05D4FFF71BFF303262556D1E33
:100FA000F9D5B3460122084302D000227F1C04E099
:100FB0002078302801D100227F1E002A099786D090
:100FC0001DE0112D07DAFFF703FF303262556D1C6B
:100FD00050EA0102F5D1084302D00098C8B10EE0F2
:100FE0000021681E05E0235C625C63542254401EAD
:100FF000491C8142F7DBAB46A81B401E099000202C
:1010000004F80B000B98099AC0F80880C0E9002B7F
:101010007CE711264FF0000859E72DE9F04F88468C
:101020000446D21D22F0070191B0D1E90001CDE9BB
:101030000A0102F0D9FE02460B98C00F01D02D2004
:1010400007E02068810701D52B2002E0202101EA7A
:10105000C000032A099001D0072A05DB0346414658
:10106000204600F097FB0BE12078800601D5E0696F
:1010700000E00620B8F1650F814606D0B8F1660F92
:1010800018D0B8F1670F70D131E00020B9F1110F1D
:10109000009001DB112301E009F101030AAA01A973
:1010A0000CA8FFF7E4FEDDE90C70002609F101054C
:1010B000834647E001204B4600904FF000470AAAC4
:1010C00001A90CA8FFF7D3FEDDE90DB00C995D4630
:1010D000002610B909F101000D18B9EB050003D481
:1010E000C0F1FF3609F10105A5EB09002BE0B9F1CC
:1010F000010F01DA4FF001090020B9F1110F009042
:10110000484601DD112300E003460AAA01A90CA804
:10111000FFF7ADFEDDE90C704D46002683462078D2
:1011200000070AD4AB4500DA5D4601A8012D04DDB5
:10113000411911F8011C302907D04F4502DA17F187
:10114000040F04DA012082460FE06D1EEEE7002F47
:1011500002DCED1B3E4403E0781CA84200DD7D1C50
:10116000B81B00F1010A4FF000472078000703D4B4
:10117000AA4501DB4FF0FF3A0021B7F1004F0DF116
:1011800043088DF8431024D002202B23002F01DACE
:101190007F422D230A21021EA0F1010000DC5FB175
:1011A00097FBF1FC97FBF1F201FB1C7C17460CF15D
:1011B000300C08F801CDEEE7A8F10100037021889A
:1011C000090501D5452100E06521A0F1010800F8DD
:1011D000011C09980FA9A1EB0807FF1D00B1012010
:1011E000411901EBEA70A1693844081A401EA06158
:1011F0002078C00602D42046FFF742FB099828B1A8
:10120000D4E901219047206A401C20622078C00662
:1012100022D52046FFF734FB1EE0002E04DBB34549
:1012200002DD01A8805D00E03020D4E90121904773
:10123000206A401C2062761CAAF101005FEA000AC5
:101240000AD100F0A3FAC0680168405CD4E901212A
:101250009047206A401C2062281EA5F10105DCDCB5
:1012600007E0D4E9012118F8010B9047206A401CDF
:101270002062381EA7F10107F3DC2046FFF716FBBA
:10128000032011B043E610B5436913B1AFF30080FA
:1012900001E0FFF72EFB012010BD127800F12401C0
:1012A0000A7000224A700122EDE711684FF0FF3208
:1012B000E9E710B5436913B1AFF3008001E0FFF730
:1012C000D5FB012010BD128800F124018284002288
:1012D000C2840122EDE711684FF0FF32E9E7000018
:1012E0002DE9F34F4FF0000A0C4656468DB0012011
:1012F0000C9001F10C000B9062690B980121904752
:1013000005002DD0252D2CD0216A8847C0B16269F7
:101310000B9801219047216A88470028F7D162691C
:10132000411E0B98904700E0761CA1690D988847F4
:10133000216A88470028F7D1E1690D988847DBE7E3
:10134000A1690D988847A842074601D1761CD3E7CA
:10135000E1690D9888477F1C02D1BAF1000F6FD068
:101360006BE162690B9800273D46394690472A2871
:1013700004D162690B98012190470125DFF8D082E2
:1013800062690B9801219047A0F130010A290AD225
:101390004745E5DC07EB870100EB4107303FDFD431
:1013A00045F01005ECE7E90601D46FF000476C2822
:1013B0000AD04C2814D0682815D06A280DD074287B
:1013C0001CD07A281AD01DE062690B980121904741
:1013D0006C2802D045F0040514E045F002050DE04C
:1013E00045F020050AE062690B98012190476828C2
:1013F00002D045F0080505E045F4006562690B98E8
:1014000001219047C4E9015765283DD019DC5828CF
:101410007AD00CDC452837D004DC252826D041289A
:101420009ED131E046282FD0472899D12CE05B2867
:1014300077D0612828D063287CD0642823D15AE053
:10144000F6E06F2848D008DC66281DD067281BD03E
:10145000692821D06E2816D127E0702845D073283E
:1014600068D0752847D078280DD14DE0A1690D9836
:101470008847252805463FF469AFE1690D988847FC
:101480006D1C3FF46AAFD8E00D9923466A466FF0B1
:101490000100AFF30080C5E045F0400023464FF067
:1014A00000026060A80736D43EE0E8077FF447AF4B
:1014B0002068011D21600068290501D506701BE721
:1014C000290701D5068017E7A90703D5F117C0E959
:1014D000006111E706600FE745F0400023464FF03A
:1014E00008026060A80716D41EE040F60E0125EA47
:1014F0000100606016E045F0400023464FF00A020C
:101500006060A80707D40FE045F040006060A807BE
:1015100008D5234610220D996FF00100AFF300802B
:1015200080E007E0102223460D996FF00100AFF331
:10153000008077E04FF0000963284F46C8464B46CD
:10154000CB4602D05B2806D038E0E80601D4012063
:10155000A060012732E06269D4F80CB00B98012139
:1015600090475E2807D14FF0010949466269D4F8D7
:101570000CB00B989047216939B900210A4603AB9A
:1015800043F82120491C0829FADBD8B3216949B363
:1015900008F1010862690B98012190475D28F4D198
:1015A000B9F1000F09D0002003A951F82020D2433F
:1015B00041F82020401C0828F7DB03AB20690028F5
:1015C00020794FEA40701ED05B462246CDF800805D
:1015D000CDE901970D9900286FF0010020DAAFF3F3
:1015E00000801FE0C11703AA00EBD1614B1121F06D
:1015F0001F0102EB8302411A136801208840034354
:101600001360C7E719E00D99224600286FF001002A
:10161000009702DAAFF3008004E0FFF703F801E07F
:10162000AFF3008000280ADA401C06D10C9820B1E4
:101630004FF0FF300FB0BDE8F08F5046FAE7E907F2
:1016400001D10AF1010A064400200C9054E6000082
:10165000CCCCCC0C2DE9F05F824615468B4600279A
:101660000AF10104B9460078302801D09DB113E099
:1016700014F8010B0127782803D0582801D045B170
:101680000AE00DB1102D07D1002714F8010B102529
:1016900002E0082500E00A250026B0460EE005FB22
:1016A000080005FB06F101271FFA80F801EB104640
:1016B000B6F5803F00D3B94614F8010B294600F077
:1016C000A9F80028EBDABBF1000F05D00FB1641EBA
:1016D00000E05446CBF80040B9F1000F06D0FFF708
:1016E0007DF802210160C81EBDE8F09F48EA06406F
:1016F000FAE770B516460C460546FFF747FB036848
:1017000093F80101012806D0FF2C0FD8185D68B1AD
:1017100001202C7070BDD3F807013246214603F238
:10172000071303442846BDE8704018474FF0FF30C8
:1017300070BD10B500F0F6F8BDE8104000F0ECB850
:1017400070477546FFF71EFBAE46050069465346D7
:1017500020F00700854618B020B5FEF7C3FDBDE8B0
:1017600020404FF000064FF000074FF000084FF008
:10177000000B21F00701AC46ACE8C009ACE8C00999
:10178000ACE8C009ACE8C0098D4670470048704716
:10179000101D00202DE9F0411F4604460326016874
:1017A000072A01F4006004DB08B116A505E016A5C0
:1017B00003E008B115A500E015A521F01000206098
:1017C000A069C01EA0610FB1401EA0612046FFF7B6
:1017D00057F84FB1D4E9012138469047206A401CA0
:1017E0002062C01C206206E0206AFAE7D4E90121E9
:1017F00015F8010B9047761EF8D22046FFF756F8F1
:10180000BDE8F0814E414E006E616E00494E4600CB
:10181000696E66003A2800D2303820F02002412A52
:1018200001D3A2F13700884201D34FF0FF30704757
:101830002DE9F047814616468AB0334878440DC8F2
:101840008DE80D0030487844801C03AC0DC884E856
:101850000D0041F69B300844372190FBF1F290FBDC
:10186000F1F5A5F1800501FB12041B3C02D5644291
:10187000012000E00020DFF890A080460027FA4415
:10188000AAF1BE0A0DE0E00709D03246684607EB30
:1018900047010AEB810100F059FB8DE80700641055
:1018A0007F1C002CEFD1184F7F44AC3F18E0E807B5
:1018B00014D007EB04100DF1180A90E80E008AE826
:1018C0000E00C068F04201D198190890324606A96E
:1018D00003A800F03BFB03AB83E807006D10641C1A
:1018E000002DE4D132466946B8F1000F03A802D0BA
:1018F00000F018FB01E000F029FBC9E90001C9F87C
:1019000008200AB0BDE8F087B43D00000446AFF3FC
:1019100000802046FEF7D1FC002801D000F02AB854
:101920007047000010B5012805D0002103A000F089
:1019300027F8012010BD09A1F8E7000053494752DC
:10194000544D454D3A204F7574206F66206865618F
:1019500070206D656D6F7279000000003A20486557
:101960006170206D656D6F727920636F7272757032
:101970007465640001491820ABBEFEE72600020032
:1019800070B505460C460A2000E06D1C00F052F8C8
:1019900035B128780028F8D102E0641C00F04AF83C
:1019A00014B120780028F8D1BDE870400A2000F07A
:1019B00041B800004FF0013C50F8042B51F8043BB3
:1019C0009A4221D1A2EB0C03934313EACC1317D113
:1019D00050F8042B51F8043B9A4215D1A2EB0C03AA
:1019E000934313EACC130BD150F8042B51F8043B6A
:1019F0009A4209D1A2EB0C03934313EACC13DBD038
:101A00004FF00000704700BFD01A01BAB1FA81F15F
:101A100001F0180122FA01F0CB40C1F12001DBB244
:101A2000C0B2C01A2CFA01F3D11A914311EAC311C2
:101A3000E6D1704708B569468DF800000320ABBEBB
:101A400008BD5FEA400C08BF91F0000F4FEA8C23FD
:101A50004FEAC12243EA51514FEA1C5018BF00F52A
:101A6000F0404FEA300018BF41F000415FEA6C5C83
:101A700000F02980BCF1FF3F08BF40F08040704774
:101A8000130C06BF12044FF0100C4FF0000C130E95
:101A900004BF12020CF1080C130F04BF12010CF169
:101AA000040C930F04BF92000CF1020CD30F04BF7F
:101AB00052000CF1010C11464FF00002A0F11F0082
:101AC000A0EB0C00704711F0004F08BF704731F0D9
:101AD00000413FF4D5AF0B0C06BF09044FF0100CCA
:101AE0004FF0000C0B0E04BF09020CF1080C0B0F99
:101AF00004BF09010CF1040C8B0F04BF89000CF129
:101B0000020CCB0F04BF49000CF1010CCCF12003F7
:101B1000A0EB0C0022FA03F302FA0CF241EA0301F3
:101B200000F10100704720F07F4C80EA030023F0B1
:101B30007F47ACEB070303F57C5300F0004003F153
:101B4000FF032DE980494FEA154B09B44FEA1443CE
:101B500025EA0B4E24EA03480FF2042606EB13276E
:101B600049083E785FEA320203FB0667C7F50007C3
:101B700007FB06F64FEA54374FEAD64606F102064F
:101B800007FB066CCCF1005C4FEA1C472CEA074CC3
:101B900007FB06F40CFB06F504EB15464FEA961618
:101BA00034BF00204FF000404FEAD13706FB07FC5E
:101BB0004FEA1C4C0CFB0BF7D21B03FB0CF761EB41
:101BC00007010CFB0EF7B0EB074072EB17420CFB62
:101BD00008F734BFA2EB0742B2EB074261EB1741B3
:101BE0004FEA0C444FEA910706FB07FC4FEA1C4CF6
:101BF0000CFB0BF7B0EBC74072EB573203FB0CF753
:101C000034BFA2EBC742B2EBC74261EB57310CFBCA
:101C10000EF7B0EBC70072EB57720CFB08F734BF3E
:101C2000A2EBC702B2EBC70261EB5771039F4FEA09
:101C3000816141EA921104EBCC044FEAD1374FEABB
:101C4000826206FB07FC42EA90124FEA80604FEA8C
:101C50001C4C0CFB0BF7D21B03FB0CF761EB0701D1
:101C60000CFB0EF7B0EB074072EB17420CFB08F7CA
:101C700034BFA2EB0742B2EB074261EB17414FEAD8
:101C80008C554FEA910704EB9C2406FB07FC4FEAB6
:101C90001C4C0CFB0BF7B0EBC74072EB573203FB4D
:101CA0000CF734BFA2EBC742B2EBC74261EB57312E
:101CB0000CFB0EF7B0EBC70072EB57720CFB08F78A
:101CC00034BFA2EBC702B2EBC70261EB577115EB51
:101CD0004C254FEA816141EA92114FEA82624FEA54
:101CE000D13742EA901206FB07FC44F100044FEAA8
:101CF00080604FEA1C4C0CFB0BF7D21B03FB0CF76C
:101D000061EB07010CFB0EF7B0EB074072EB1742DB
:101D10000CFB08F734BFA2EB0742B2EB074261EBC2
:101D2000174115EB1C154FEA813141EA92414FEA08
:101D3000823242EA90424FEA80304FEA0C7644F118
:101D4000000448EA03434EEA0B484FF0000EB2EBA2
:101D5000080C71EB030724BF624639464EEB0E0EAA
:101D60004FF0000B0018524149414BEB0B0BB2EB0B
:101D7000080C71EB03077BF1000B24BF6246394668
:101D80004EEB0E0E4FF0000B0018524149414BEB49
:101D90000B0BB2EB080C71EB03077BF1000B24BFBC
:101DA000624639464EEB0E0E51EA020718BF46F066
:101DB000010616EB0E7655F1000254F1000103D531
:101DC000BDE88901BDE80088BDE88901BDE800489B
:101DD000B619524141EB0101A3F101037047808024
:101DE0007F7E7D7C7B7A7978777676757473727175
:101DF00071706F6E6E6D6C6C6B6A6A69686867662D
:101E000066656464636362616160605F5F5E5E5DBE
:101E10005D5C5C5B5B5A5A59595858575756565532
:101E200055555454535352525251515050504F4F94
:101E30004F4E4E4D4D4D4C4C4C4B4B4B4A4A4A49E4
:101E40004949484848474747474646464545454427
:101E50004444444343434342424242414141002BB4
:101E600026D4770021D01CB54FEA370703B44FF0D2
:101E700010004FF010014FF000000FBCBDE8104003
:101E80000BF1010BBBF1010F08BF5FEA170722BF7F
:101E900012F1010211F101014FF0004143F1000381
:101EA00000F0004043EA00007047F9D35708DAE732
:101EB00046EA064613F1400F4FEA16461FDD13F1BE
:101EC000200FDFBF16430A46002120335B42C8D0F3
:101ED000C3F1200746EA064602FA07F74FEA16461C
:101EE00046EA0706C3F1200722FA03F201FA07F7D0
:101EF00021FA03F14FF0000342EA0702B1E746EA94
:101F0000020646EA06464FEA164646EA0106BCBF06
:101F100046EA0646360C4FF000034FF000024FF041
:101F200000019EE72DE9C048934630B491E838009F
:101F300007C831EA400C48BF34EA430C03D5FFF729
:101F4000F2FDFFF78CFFF0BCBDE800882DE9C0482A
:101F5000934630B491E8380007C810F0804F08BFAE
:101F600013F0804F03D100F005F8FFF778FFF0BCC5
:101F7000BDE8008820F07F4780EA030023F07F4C13
:101F800007EB0C03A3F57C5300F00040A3F1FE0324
:101F900092F0000F00F0B38095F0000F00F0778012
:101FA0002DE901494FEA11404FEA144621EA004861
:101FB00000FB06FC24EA064708FB06F607FB08F8C8
:101FC00000FB07F718EB06484CEB164C4FEA124B98
:101FD00018EB07484FEA15464CEB174022EA0B4E28
:101FE0000BFB06FC25EA06470EFB06F607FB0EFE7A
:101FF0000BFB07F71EEB064E4CEB164C4FF00006A2
:102000001EEB074E4CEB174B18EB0B0840F1000092
:1020100018EB0E0B58EB000840F100008F1A4FF040
:1020200000013CBFC943661B14BFB5EB040C002183
:102030003CBFC943F61B4FEA17444EEA8E0E27EA0F
:1020400004454FEA1C4704FB07622CEA074C05FBDA
:1020500007F70CFB05F604FB0CFC16EB074642EBFE
:10206000174216EB0C4642EB1C421BEB060658EBE4
:102070000202414146EA9E0601D5BDE80189B61932
:10208000524141EB0101A3F10103BDE801894FEA8F
:1020900014454FEA114724EA054621EA074C05FB9F
:1020A00007F406FB07F70CFB06F105FB0CFC11EB34
:1020B000074144EB17444FEA124711EB0C4144EB44
:1020C0001C4422EA074C05FB07F206FB07F70CFB52
:1020D00006F605FB0CFC16EB074642EB174216EB27
:1020E0000C4642EB1C456A1854F1000148BF70478A
:1020F000B619524141EB0101A3F10103704795F07C
:10210000000F37D04FEA11424FEA144721EA024646
:1021100024EA074C02FB07F106FB07F70CFB06F469
:1021200002FB0CFC14EB074441EB17414FEA154747
:1021300014EB0C4441EB1C4125EA074C02FB07F56C
:1021400006FB07F70CFB06F602FB0CFC16EB07463A
:1021500045EB174516EB0C4645EB1C42121951F1A5
:10216000000148BF7047B619524141EB0101A3F18C
:10217000010370474FEA14454FEA114724EA054628
:1021800021EA074C05FB07F106FB07F70CFB06F2FB
:102190004FF0000605FB0CFC12EB074241EB174128
:1021A00012EB0C4251EB1C4148BF7047921841EBB7
:1021B0000101A3F10103704700BFFEE77047000073
:1021C00010B54FF400710348FEF7DAFA0020024917
:1021D000088010BDD81A00201400002008B5012185
:1021E000102001F089F910208DF803008002ADF86D
:1021F000000003208DF8020069460C4800F052FDF3
:1022000000224FF48041094800F0DBFDFA2001F084
:10221000F5FE01229103054800F0D3FD4FF4FA705A
:1022200001F0ECFEFFF7CCFF08BD000000100140FC
:102230002DE9F04104460D46C8262046FEF781FAF6
:1022400087B23A4621460D4801F05AFD0FE000F0F2
:1022500019F848B929460A48FEF761FA20B1FFF794
:10226000AFFF0020BDE8F0810A2001F0C7FE30007A
:10227000A6F10101CEB2EAD10120F3E7004400400B
:10228000D81A00200A48008808B901207047084879
:10229000008808490988884203D100200449088041
:1022A000F4E703480088034908800120EEE70000B6
:1022B000140000201600002010B502F0D5FC02F03A
:1022C00095FB28A1294801F0F7FC03E04FF4FA70D0
:1022D00001F094FE26A127A0FFF7AAFF0028F5D160
:1022E00026A1224801F0E8FC03E04FF4FA7001F067
:1022F00085FE21A124A0FFF79BFF0028F5D103E074
:102300004FF4FA7001F07AFE1BA122A0FFF790FFB4
:102310000028F5D123A1154801F0CEFC03E04FF4CD
:10232000FA7001F06BFE12A121A0FFF781FF0028D7
:10233000F5D123A10D4801F0BFFC03E04FF4FA7082
:1023400001F05CFE23A125A0FFF772FF0028F5D164
:102350002C49086000F082FE02F09CFC02F01AF9A1
:1023600010BD0000302E2041540D0A0000380140FD
:102370004F4B000041540D0A00000000312E205246
:1023800053540D0A0000000041542B5253540D0ABF
:102390000000000041542B434950434C4F53450D1E
:1023A0000A000000322E2043574D4F44450D0A00CD
:1023B00041542B43574D4F44453D310D0A00000019
:1023C000332E20434F4E4E45435420574946490D26
:1023D0000A000000474F54204950000041542B434D
:1023E000574A41503D225869616F6D695F453431EC
:1023F00037222C22373033373033373033220D0A2F
:1024000000000000B401224230B587B000200690E1
:102410006A225649564801F073FC4FF4FA7001F0F5
:10242000EDFD544A54A1594801F046FC58A15148C9
:10243000FEF775F900F10E0459A14E48FEF76FF949
:1024400000F10A052878069006A8FEF75BF95749BF
:102450000860084656A102684C4801F02DFC01AA0C
:1024600056A12046FEF7C0F801AA56A1474801F040
:1024700023FC9DF8040030384FF47A7148439DF8EE
:102480000510303901EBC10202EB011100EB8101B3
:102490009DF80600303800EB800001EB40019DF80C
:1024A0000700303808444A4908609DF80A0030386F
:1024B0009DF80910303901EB810100EB41004449DE
:1024C00048609DF80D0030389DF80C10303901EB54
:1024D000810100EB41003E4988609DF810003038D2
:1024E0009DF80F10303901EB810100EB41003849B4
:1024F000C8609DF8130030389DF81210303901EB98
:10250000810100EB4100324908619DF81600303826
:102510009DF81510303901EB810100EB41002C4989
:102520004861084600682B490860294840682A49E4
:10253000086027488068294908602548C0682849FC
:102540000860234800692749086021484069401C09
:1025500025490860032225A1054801F0D1FB4FF46D
:102560007A7001F04BFD07B030BD0000F456000852
:1025700000440040D81A00206765742074696D65B6
:1025800020646174613A25730A000000003801403C
:10259000226461746574696D655F31223A000000E0
:1025A000227765656B5F31223A0000002800002029
:1025B0007765656B3D25640A00000000255B5E229F
:1025C0005D00000074696D653D25730A0000000020
:1025D000D81C0020300000203400002038000020EB
:1025E0003C00002040000020440000202B2B2B004A
:1025F0002DE9FF410220FDF787FE05460220FDF789
:1026000083FE06460620FDF77FFE07460020029067
:1026100003900190009073223049314801F070FB23
:102620004FF4FA7001F0EAFC2E4A2FA1344801F071
:1026300043FB34A12B48FEF772F800F1080733A1E1
:102640002848FEF76CF800F1080632A12548FEF78D
:1026500066F800F10F05002404E017F8010B02A949
:102660000855641C062CF8DB002408E016F8010B62
:1026700001A9085515F8010B0DF80400641C022C83
:10268000F4DB3046FDF76FFE3846FDF76CFE28465A
:10269000FDF769FE01A8FEF735F822490860684693
:1026A000FEF730F82049086002AA20A1144801F082
:1026B00003FB01AA21A1124801F0FEFA6A4622A1F9
:1026C0000F4801F0F9FA032223A1054801F018FB95
:1026D0004FF47A7001F092FCBDE8FF81805600084B
:1026E00000440040D81A0020676574207765617443
:1026F00068657220646174613A25730A0000000005
:1027000000380140226E616D65223A0022636F64D9
:1027100065223A002274656D706572617475726528
:10272000223A000018000020200000206C6F636136
:1027300074696F6E3D25730A00000000776561744F
:102740006865723D25730A0074656D706572617409
:102750007572653D25730A002B2B2B002DE9FF4177
:102760000025002600270020029003900190009091
:1027700073223249324801F0C3FA4FF4FA7001F083
:102780003DFC304A30A1364801F096FA35A12D487B
:10279000FDF7C5FF00F1080734A12A48FDF7BFFF88
:1027A00000F1080533A12748FDF7B9FF00F10F0636
:1027B000002404E017F8010B02A90855641C062C3C
:1027C000F8DB02AA2FA1264801F076FA002408E0DF
:1027D00015F8010B01A9085516F8010B0DF80400B6
:1027E000641C022CF4DB01A8FDF78CFF294908606A
:1027F0006846FDF787FF2849086001AA27A1184805
:1028000001F05AFA6A4629A1154801F055FA032247
:102810002BA10B4801F074FA4FF47A7001F0EEFB33
:1028200003E04FF4FA7001F0E9FB26A126A0FFF7C0
:10283000FFFC0028F5D1BDE8FF8100000C56000820
:1028400000440040D81A00206765742077656174E1
:1028500068657220646174613A25730A00000000A3
:1028600000380140226E616D65223A0022636F6478
:1028700065223A002274656D7065726174757265C7
:10288000223A00006C6F636174696F6E313D25738D
:102890000A0000001C0000202400002077656174FD
:1028A000686572313D25730A0000000074656D7023
:1028B00065726174757265313D25730A0000000010
:1028C0002B2B2B004F4B000041542B434950434CC2
:1028D0004F53450D0A00000010B52A480068002833
:1028E0001DD029A12C4801F0E7F903E04FF4FA705C
:1028F00001F084FB29A12AA0FFF79AFC0028F5D15A
:102900002BA1254801F0D8F903E04FF4FA7001F04B
:1029100075FB22A12AA0FFF78BFC0028F5D12CA182
:102920001D4801F0C9F903E04FF4FA7001F066FBAD
:102930002DA12FA0FFF77CFC0028F5D136A1164869
:1029400001F0BAF903E04FF4FA7001F057FB13A15C
:1029500035A0FFF76DFC0028F5D137A10E4801F036
:10296000ABF903E04FF4FA7001F048FB0BA136A07D
:10297000FFF75EFC0028F5D102480068401C0149C1
:10298000086010BD2C00002031312E2043495043F7
:102990004C4F53450D0A0000003801404F4B0000DA
:1029A00041542B434950434C4F53450D0A000000FE
:1029B00031322E2043574D4F44450D0A0000000090
:1029C00041542B43574D4F44453D310D0A00000003
:1029D000342E205443502074696D6520636F6E6EF1
:1029E0006563740D0A000000434F4E4E454354008A
:1029F00041542B43495053544152543D2254435067
:102A0000222C226170692E6B3738302E636F6D2255
:102A10002C38300D0A000000352E204349504D4F10
:102A200044450D0A0000000041542B4349504D4FCE
:102A300044453D310D0A0000362E20434950534590
:102A40004E440D0A0000000041542B4349505345A9
:102A50004E440D0A0000000010B526A1294801F0DF
:102A60002BF903E04FF4FA7001F0C8FA26A127A071
:102A7000FFF7DEFB0028F5D128A1224801F01CF960
:102A800003E04FF4FA7001F0B9FA1FA126A0FFF796
:102A9000CFFB0028F5D128A11A4801F00DF903E079
:102AA0004FF4FA7001F0AAFA2AA12CA0FFF7C0FB9C
:102AB0000028F5D134A1134801F0FEF803E04FF4EB
:102AC000FA7001F09BFA10A133A0FFF7B1FB0028C8
:102AD000F5D135A10B4801F0EFF803E04FF4FA709F
:102AE00001F08CFA08A134A0FFF7A2FB0028F5D171
:102AF00010BD0000372E20434950434C4F53450D25
:102B00000A000000003801404F4B000041542B43A5
:102B10004950434C4F53450D0A000000372E2043C7
:102B2000574D4F44450D0A0041542B43574D4F44D8
:102B3000453D310D0A000000382E205443502077C7
:102B400065617468657220636F6E6E6563740D0AEB
:102B500000000000434F4E4E4543540041542B4368
:102B6000495053544152543D22544350222C226127
:102B700070692E73656E6976657273652E636F6D0D
:102B8000222C38300D0A0000392E204349504D4F79
:102B900044450D0A0000000041542B4349504D4F5D
:102BA00044453D310D0A000031302E204349505339
:102BB000454E440D0A00000041542B4349505345F3
:102BC0004E440D0A0000000010B50FA1124801F09C
:102BD00073F803E04FF4FA7001F010FA0FA110A09F
:102BE000FFF726FB0028F5D111A10B4801F064F88E
:102BF00003E04FF4FA7001F001FA08A110A0FFF70A
:102C000017FB0028F5D110BD392E204349504D4FF8
:102C100044450D0A00000000003801404F4B000001
:102C200041542B4349504D4F44453D310D0A00005E
:102C300031302E2043495053454E440D0A000000C8
:102C400041542B43495053454E440D0A00000000A7
:102C500010B50A2001F0D2F907480068012807D111
:102C60000648006808B9012000E000200349086018
:102C7000012000F011F810BD00812142B401224270
:102C800010B50A2001F0BAF902480068022000F0ED
:102C900003F810BD0481214201490860704700001B
:102CA000140401402DE9F0410246002500260020D1
:102CB00000230024002791F803C00CF00F0591F8C1
:102CC00003C00CF0100CBCF1000F03D091F802C04F
:102CD0004CEA050591F800C0BCF1000F31D0146832
:102CE00000202BE04FF0010C0CFA00F3B1F800C00B
:102CF0000CEA03069E4220D183004FF00F0C0CFA21
:102D000003F7BC4305FA03FC4CEA040491F803C042
:102D1000BCF1280F06D14FF0010C0CFA00FCC2F8F0
:102D200014C00AE091F803C0BCF1480F05D14FF080
:102D3000010C0CFA00FCC2F810C0401C0828D1D3CA
:102D40001460B1F800C0BCF1FF0F34DD54680020FE
:102D50002EE000F1080C4FF0010808FA0CF3B1F86E
:102D600000C00CEA03069E4221D183004FF00F0CF5
:102D70000CFA03F7BC4305FA03FC4CEA040491F88F
:102D800003C0BCF1280F05D100F1080C08FA0CF8BB
:102D9000C2F8148091F803C0BCF1480F07D100F1CC
:102DA000080C4FF0010808FA0CF8C2F81080401C1B
:102DB0000828CED35460BDE8F081416170470161BD
:102DC00070470AB1016100E04161704700BFFEE752
:102DD00010B54FF480710948FFF7F1FF4FF400710F
:102DE0000648FFF7ECFF4FF400710448FFF7E5FFDA
:102DF0004FF480710148FFF7E0FF10BD000C014067
:102E000010B54FF480710748FFF7D9FF4FF40071F8
:102E10000448FFF7D2FF4FF400710248FFF7CFFFDD
:102E200010BD0000000C014010B54FF48071044843
:102E3000FFF7C5FF4FF480710148FFF7BEFF10BDDB
:102E4000000C014008B50121082000F055FB0120CD
:102E5000ADF8000048208DF8030069460C48FFF7E4
:102E600021FF0220ADF8000048208DF803006946DC
:102E70000748FFF717FF4FF48060ADF800004820C7
:102E80008DF8030069460248FFF70CFF08BD0000FB
:102E9000000C014010B5044614B101201C49087013
:102EA0001B48007808B31B48006838B11948001D5A
:102EB000006818B1174828300068B0B9462001F002
:102EC0009DF80020124908701248006808B90120D6
:102ED00010BD1048001D006808B90220F8E70D4831
:102EE0002830006888B90320F2E70A480068012802
:102EF0000BD10848001D0068012806D1054828307C
:102F00000068012801D1024908700020E0E70000B4
:102F1000BD1A00200081214208B50121102000F0D7
:102F2000EBFA4FF40050ADF8000010208DF80300CC
:102F300003208DF8020069460448FFF7B3FE4FF402
:102F400000510248FFF73BFF08BD000000100140A0
:102F500000BFFEE710B50120FFF79CFF012809D153
:102F600019481A49097800EBC100407817490870E0
:102F700000F074F80120FFF78DFF022809D11248F4
:102F80001249097800EBC10080781049087000F000
:102F900065F80120FFF77EFF032809D10A480B4995
:102FA000097800EBC100C0780849087000F056F8B5
:102FB00005480649097800EBC100406804490860EB
:102FC00008460068804710BDCC190020BC1A0020BC
:102FD000C81900207047000070B5002100230F229F
:102FE000C47804B3154C246804F4E064C4F5E064C8
:102FF000210AC1F10403CA40447804FA03F1847839
:103000001440214309010E4C0678A155047804F0C0
:103010001F050124AC4005786D11AD0005F1E025D8
:10302000C5F8004109E0047804F01F050124AC4014
:10303000044D0678761145F8264070BD0CED00E091
:1030400000E400E080E100E002490143024A11602F
:10305000704700000000FA050CED00E070B5002498
:1030600018E004F1B000002100F029FA0021084620
:1030700000F025FA0021102000F021FA002505E0DB
:103080000121002000F01BFA681CC5B2802DF7DB7F
:10309000601CC4B2082CE4DB70BD00002DE9F047D1
:1030A00080460E4691461F4600250024A9F12000C7
:1030B000C5B2B8F17F0F02DDA046B01CC6B2102F1A
:1030C00024D13146404600F051F9002408E004EBD9
:1030D00005113A4A505C012100F0F1F9601CC4B2BC
:1030E000082CF4DB701CC1B2404600F03FF900240C
:1030F00009E004EB05110831304A505C012100F071
:10310000DEF9601CC4B2082CF3DB55E0082F14D1A3
:10311000701CC1B2404600F029F900240AE005EB1A
:103120004501274A02EB4101085D012100F0C7F982
:10313000601CC4B2062CF2DB3EE0182F3CD13146B5
:10314000404600F013F900240AE005EB450104EBCA
:1031500001111A4A505C012100F0B1F9601CC4B29F
:10316000102CF2DB701CC1B2404600F0FFF80024C6
:103170000BE005EB450104EB011110310F4A505CE7
:10318000012100F09CF9601CC4B2102CF1DBB01CD2
:10319000C1B2404600F0EAF800240BE005EB45011F
:1031A00004EB01112031054A505C012100F087F940
:1031B000601CC4B2102CF1DBBDE8F087444F00085E
:1031C0001C4D00082DE9F05F06460F4690461C4650
:1031D000DDF828A04FF0000BE11704EB5171C91086
:1031E000A4EBC10131B92046E11704EB5171C1F3E1
:1031F000C70506E02046E11704EB5171C910491CD0
:10320000CDB23D4615E02946304600F0AFF8B14654
:103210000BE059460BF1010B1AF80100012100F0F7
:103220004EF909F1010000F0FF09C145F1DB681C0E
:10323000C5B2A542E7DBBDE8F09F000008B501215B
:10324000082000F059F910208DF8030003208DF8B4
:1032500002000002ADF8000069464348FFF722FD76
:103260004FF440714048FFF7AAFDC82000F0C6FEA9
:103270000021AE2000F023F90021084600F01FF9DC
:103280000021102000F01BF90021402000F017F968
:103290000021812000F013F90021CF2000F00FF968
:1032A0000021A12000F00BF90021C82000F007F94F
:1032B0000021A62000F003F90021A82000F0FFF86B
:1032C00000213F2000F0FBF80021D32000F0F7F8A8
:1032D0000021084600F0F3F80021D52000F0EFF8B7
:1032E0000021802000F0EBF80021D92000F0E7F861
:1032F0000021F12000F0E3F80021DA2000F0DFF8EF
:103300000021122000F0DBF80021DB2000F0D7F8CC
:103310000021402000F0D3F80021202000F0CFF859
:103320000021022000F0CBF800218D2000F0C7F82A
:103330000021142000F0C3F80021A42000F0BFF801
:103340000021A62000F0BBF80021AF2000F0B7F864
:103350000021AF2000F0B3F8FFF780FE00210846FF
:1033600000F004F808BD0000000C014070B50446F0
:103370000D4605F1B000002100F0A1F8102141EA4E
:103380001410002100F09BF804F00F00002100F061
:1033900096F870BD2DE9F04180460E46154600278F
:1033A00031464046FFF7E2FF00240AE0124A02EBF2
:1033B0008511085D012100F082F8781CC7B2601CFD
:1033C000C4B2102CF2DB701CC1B24046FFF7CEFF36
:1033D00000240CE06900491C074A02EB4111085D1A
:1033E000012100F06CF8781CC7B2601CC4B2102C2C
:1033F000F0DBBDE8F0810000880200202DE9FF5FCE
:10340000074691461E460E9D4FF0000A002435E007
:10341000301B401EC1B20A2001F019F9B9FBF0F0CF
:103420000A21B0FBF1F201FB1208BAF1000F14D12E
:10343000701EA04211DDB8F1000F0CD1AB4605EBB8
:10344000DB71491001FB0471C8B22B46202201999F
:10345000FFF724FE10E04FF0010AAB4605EBDB71ED
:10346000491001FB0471C8B208F13001CAB22B4601
:103470000199FFF713FE00BF601CC4B2B442C7DB62
:10348000BDE8FF9F2DE9F04104460F4615469846DA
:1034900000260FE0AA5D434639462046FFF7FEFDB1
:1034A00004F10800C4B2782C02DD0024B81CC7B2B5
:1034B000701CC6B2A85D0028ECD1BDE8F08170B5E3
:1034C00004460D461DB1E0B200F078FC02E0E0B227
:1034D00000F05EFC70BD704729B1064AD269024314
:1034E000044BDA6104E0034AD2698243014BDA619A
:1034F000704700000010024029B1064A9269024359
:10350000044B9A6104E0034A92698243014B9A6139
:10351000704700000010024030B500210022002456
:1035200000232D4D6D6805F00C0121B1042905D053
:10353000082923D105E0294D056022E0274D0560CB
:103540001FE0254D6D6805F47012234D6D6805F47C
:103550008034022505EB92421CB9214D554305608C
:103560000BE01D4D6D6805F400351DB11C4D554334
:10357000056002E0194D5543056002E0174D0560F6
:1035800000BF00BF144D6D6805F0F0010909154D2D
:103590006B5C0568DD4045600F4D6D6805F4E061CA
:1035A000090A104D6B5C4568DD4085600A4D6D6809
:1035B00005F46051C90A0B4D6B5C4568DD40C56080
:1035C000054D6D6805F44041890B074D6B5CC5687E
:1035D000B5FBF3F5056130BD0010024000127A0022
:1035E00000093D00C21A0020D21A0020704710B511
:1035F00000F002F810BD00000CB500200190009012
:103600003348006840F480303149086000BF3048DA
:10361000006800F4003000900198401C0190009870
:1036200018B90198B0F5A06FF1D12948006800F4ED
:10363000003010B10120009001E0002000900098BF
:10364000012843D12348006840F010002149086058
:103650000846006820F0030008600846006840F053
:10366000020008601A4840681949486008464068E6
:1036700048600846406840F48060486008464068FA
:1036800020F47C1048600846406840F4E810486028
:103690000846006840F08070086000BF0C48006871
:1036A00000F000700028F9D00948406820F00300BD
:1036B000074948600846406840F00200486000BF83
:1036C0000348406800F00C000828F9D10CBD000048
:1036D0000010024000200240042808D14FF0E021F1
:1036E000096941F004014FF0E022116107E04FF059
:1036F000E021096921F004014FF0E02211617047D7
:103700007047000010B51348006840F001001149EF
:10371000086008464068104908400E49486008465D
:1037200000680E4908400B4908600846006820F40C
:10373000802008600846406820F4FE0048604FF48E
:103740001F008860FFF753FF4FF0006004490860D6
:1037500010BD0000001002400000FFF8FFFFF6FE61
:1037600008ED00E010B50121880700F072F848B3B9
:103770000121880700F05EF813480068401C1249D8
:1037800008603C2806D10020086010480068401CF2
:103790000E4908600D4800683C2807D100200B49FD
:1037A00008600B480068401C094908600848006828
:1037B000182807D100200649086006480068401C08
:1037C0000449086010BD00004400002040000020B3
:1037D0003C000020380000207FB505460C46012142
:1037E0000846FFF779FEADF80850ADF80440002018
:1037F000ADF80A00ADF8060001A94FF0804000F0D6
:1038000043F801221146900700F034F81C208DF88F
:10381000000000208DF8010003208DF80200012037
:103820008DF803006846FFF7D7FB0121880700F0F9
:1038300004F87FBDCA430282704721B1028842F07A
:103840000102028004E002884FF6FE731A400280F3
:10385000704730B50246002000230024158A05EA8F
:103860000103958905EA010413B10CB1012000E0C0
:10387000002030BD1AB183890B43838102E0838924
:103880008B43838170470000002202881D4B9842C1
:103890000ED01D4B98420BD0B0F1804F08D01B4B7F
:1038A000984205D01A4B984202D01A4B984204D144
:1038B0004FF68F731A404B881A43174B984207D024
:1038C000164B984204D04FF6FF431A40CB881A4358
:1038D00002808B8883850B8803850A4B98420BD026
:1038E000094B984208D00E4B984205D00D4B984298
:1038F00002D00D4B984201D10B7A038601238382BB
:1039000070470000002C01400034014000040040DA
:1039100000080040000C004000100040001400406F
:1039200000400140004401400048014010B540F211
:103930002551044800F050F818B12021014800F04A
:1039400029F810BD0038014010B540F225510E484D
:1039500000F042F8B8B10D480088B0F5007F02D3FE
:1039600000200A4908800848001D0088C1B20748A5
:1039700002880088401C054B18800548815420218E
:10398000014800F007F810BD00440040140000207A
:10399000D81A002001F40072B2F5007F00D100BFF8
:1039A000CA430280704721B1828942F40052828169
:1039B00004E082894DF6FF731A4082817047024607
:1039C0000020B1F5007F00D100BF13880B400BB180
:1039D000012000E00020704770B50246002400235B
:1039E0000025002040F66A16B14200D100BFC1F3A5
:1039F000421501F01F03012606FA03F3012D02D13F
:103A00009689334006E0022D02D1168A334001E048
:103A1000968A33400C12012606FA04F416883440C4
:103A200013B10CB1012000E0002070BDF0B50346D9
:103A3000002400260025002040F66A17B94200D174
:103A400000BF1846C1F3421401F01F06012707FA10
:103A500006F5012C01D10C3004E0022C01D110300C
:103A600000E014301AB107682F43076002E00768CE
:103A7000AF430760F0BD00002DE9F04786B0054672
:103A80000E460024A24600BFA1460027B08900B11F
:103A900000BF2F462C8A4CF6FF700440F088044388
:103AA0002C82AC894EF6F3100440B088318908436B
:103AB000718908430443AC81AC8A4FF6FF4004404F
:103AC000B0890443AC8201A8FFF726FD1F48874256
:103AD00002D1DDF810A001E0DDF80CA0A88900F407
:103AE000004040B10AEBCA0000EB0A1031684900FF
:103AF000B0FBF1F807E00AEBCA0000EB0A103168EE
:103B00008900B0FBF1F86420B8FBF0F00401200953
:103B1000642101FB1089A88900F4004040B13220E3
:103B200000EBC900B0FBF1F000F00700044308E02F
:103B3000322000EB09106421B0FBF1F000F00F001F
:103B400004432C8106B0BDE8F08700000038014036
:103B5000C1F308028280704700BFFEE710B586B04F
:103B6000044601210420FFF7C7FC01218803FFF769
:103B7000C3FC18208DF817004FF40070ADF8140046
:103B800003208DF8160005A91E48FFF78BF80420C6
:103B90008DF817000002ADF8140003208DF8160010
:103BA00005A91848FFF77EF801940020ADF8100031
:103BB0000C20ADF80E000020ADF80C00ADF80A00A6
:103BC000ADF8080001A91048FFF756FF01210E4883
:103BD000FFF7E9FE012240F225510B48FFF726FFCF
:103BE00025208DF8000001208DF8030000208DF8BD
:103BF000010002208DF802006846FFF7EDF906B0DB
:103C000010BD0000000801400038014010B586B02A
:103C1000044601210420FFF76FFC01214804FFF74F
:103C20005BFC18208DF817000420ADF81400032069
:103C30008DF8160005A91E48FFF734F804208DF80A
:103C400017000820ADF8140003208DF8160005A910
:103C50001748FFF727F801940020ADF810000C205A
:103C6000ADF80E000020ADF80C00ADF80A00ADF87C
:103C7000080001A90F48FFF7FFFE01210D48FFF7DB
:103C800092FE012240F225510A48FFF7CFFE26207E
:103C90008DF8000001208DF8030000208DF8010050
:103CA0008DF802006846FFF797F906B010BD0000D6
:103CB00000080140004400400FB430B5CBB00546C9
:103CC00001AC50A800904FF4947101A8009B4F9A4A
:103CD000FCF770FB002000900BE014F8011B284655
:103CE000FFF736FF00BF40212846FFF768FE002897
:103CF000F9D020780028F0D14BB030BC5DF814FB2F
:103D00002DE9F04107460C46154600260DE014F853
:103D1000011B3846FFF71CFF00BF40213846FFF764
:103D20004EFE0028F9D0701C86B2AE42EFDBBDE833
:103D3000F08100002DE9F04105462C464FF48071DA
:103D40001248FFF73AF800261CE0274607F08007E4
:103D5000802F04D1B9000D48FFF731F804E04FF48B
:103D600000710A48FFF729F86006040E4FF48071CD
:103D70000648FFF724F84FF480710448FFF71DF858
:103D8000701CC6B2082EE0DBBDE8F081000C0140DB
:103D900010B50446FFF71CF87820FFF7CBFFFFF7BC
:103DA00043F80020FFF7C6FFFFF73EF82046FFF775
:103DB000C1FFFFF739F8FFF723F810BD10B504462F
:103DC000FFF706F87820FFF7B5FFFFF72DF8402042
:103DD000FFF7B0FFFFF728F82046FFF7ABFFFFF72C
:103DE00023F8FFF70DF810BD490050EAC12018BFB5
:103DF00004204A0D18BF40F0010040F2FF72B2EB00
:103E0000515F08BF40F00200012808BF052070473D
:103E100030380A2801D20120704700207047000086
:103E200008B5002211461046FFF7B4FA012200211E
:103E30001020FFF7AFFA022200212020FFF7AAFA94
:103E4000032200213020FFF7A5FA042200214020A0
:103E5000FFF7A0FA052200215020FFF79BFA062267
:103E600000216020FFF796FA072200217020FFF75B
:103E700091FA342204212020FFF78CFA3522042104
:103E80003020FFF787FA362204214020FFF782FA1C
:103E9000372204215020FFF77DFA044806237022C0
:103EA000042100906020FFF78DF908BD6802002012
:103EB00010B500F005F810BD10B500F03FF810BDCA
:103EC00008B5572200212020FFF764FA582200216C
:103ED0003020FFF75FFA592200214020FFF75AFAFD
:103EE0005A2200215020FFF755FA19220221002002
:103EF000FFF750FA1A2202211020FFF74BFA58223E
:103F000002212020FFF746FA552204210020FFF766
:103F100041FA562204211020FFF73CFA58220421CE
:103F20002020FFF737FA04480423402202210090A2
:103F30003020FFF747F908BD6802002008B5572276
:103F400000212020FFF726FA582200213020FFF719
:103F500021FA592200214020FFF71CFA5A220021A1
:103F60005020FFF717FA192202210020FFF712FA5A
:103F70001A2202211020FFF70DFA582202212020D8
:103F8000FFF708FA552204210020FFF703FA562212
:103F900004211020FFF7FEF9582204212020FFF70A
:103FA000F9F9044806234022042100903020FFF74D
:103FB00009F908BD6802002010B56FF00400FFF792
:103FC0008BFB0A4800680A49B0FBF1F00949087008
:103FD0000846007800EB4001C1EBC0104FF6FF71BE
:103FE00001EAC0000449088010BD00000000002064
:103FF00000127A00BE1A0020C01A002001460D4AA5
:1040000012884A434FF0E0235A6100229A6101224C
:104010001A6100BF4FF0E022106900F001021AB1EE
:1040200000F48032002AF5D000224FF0E0231A611C
:104030009A617047C01A002010B53E220021084640
:10404000FFF7A8F93F2200211020FFF7A3F9402233
:1040500000212020FFF79EF908233A22002130207A
:10406000FFF71CF8412200213820FFF793F9422284
:1040700000214820FFF78EF9432200215820FFF746
:1040800089F93E2202210020FFF784F93F22022114
:104090001020FFF77FF93A2202212020FFF77AF95A
:1040A0003B2202213020FFF775F908233A22022132
:1040B0004020FEF7F3FF10230DA202214820FFF756
:1040C000E1F9442206210020FFF764F94522062188
:1040D0001020FFF75FF908233A2206212020FEF77F
:1040E000DDFF102305A206212820FFF7CBF910BD24
:1040F000323032332F352F32350000007971713074
:104100003833330008B5A44800680A282BDBA348DD
:1041100000680A2827DB102004230090A048002113
:1041200002681820FFF76AF910232F220021382097
:10413000FEF7B4FF10200223009097480021026888
:104140004020FFF75BF910232F2200215020FEF7BB
:10415000A5FF1020022300909048002102685820FB
:10416000FFF74CF95EE08C4800680A282BDA8B4890
:1041700000680A2827DB10200423009088480021CB
:1041800002681820FFF73AF910232F220021382067
:10419000FEF784FF1020012300907F480021026871
:1041A0004020FFF72BF910232F2200214820FEF793
:1041B00075FF1020022300907848002102685020EB
:1041C000FFF71CF92EE0744800680A282ADB7348C0
:1041D00000680A2826DA1020042300907048002185
:1041E00002681820FFF70AF910232F220021382037
:1041F000FEF754FF10200223009067480021026858
:104200004020FFF7FBF810232F2200215020FEF75B
:1042100045FF1020012300906048002102685820CB
:10422000FFF7ECF85C4800680A2832DA5B4800685F
:104230000A282EDA10200423009059480021026831
:104240001820FFF7DBF810232F2200213820FEF77B
:1042500025FF1020012300904F48002102684020D4
:10426000FFF7CCF810232F2200214820FEF716FF7D
:10427000102001230022114600905020FFF7BEF8C5
:104280001020012300904548002102685820FFF7C4
:10429000B5F8444800680A2809DB10200223009082
:1042A0004048032102685020FFF7A8F814E03D4879
:1042B00000680A2810DA1020012300220321009050
:1042C0005020FFF79BF81020012300903548032170
:1042D00002685820FFF792F8334800680A2809DB83
:1042E0001020022300903048032102683820FFF795
:1042F00085F814E02C4800680A2810DA1020012301
:104300000022032100903820FFF778F810200123C5
:1043100000902548032102684020FFF76FF82348EA
:1043200000680A2809DB1020022300901F4803219F
:1043300002682020FFF762F814E01C4800680A2891
:1043400010DA102001230022032100902020FFF723
:1043500055F81020012300901348032102682820FB
:10436000FFF74CF810233A2203213020FEF796FE87
:1043700010233A2203214820FEF790FE482205210F
:104380002820FFF707F8492205213820FFF702F817
:1043900000F030FC08BD0000340000203800002090
:1043A0003000002044000020400000203C0000209D
:1043B00010B5212200211020FEF7ECFF222200215F
:1043C0002020FEF7E7FF232200213020FEF7E2FF46
:1043D000242200214020FEF7DDFF2522002150206D
:1043E000FEF7D8FF262200216020FEF7D3FF272208
:1043F00002211020FEF7CEFF282202212020FEF706
:10440000C9FF292202213020FEF7C4FF2A220221FF
:104410004020FEF7BFFF2B2202215020FEF7BAFFFB
:104420002C2202216020FEF7B5FF102314A20621E2
:104430000020FFF727F82D2206211020FEF7AAFF03
:104440002E2206212020FEF7A5FF2F220621302054
:10445000FEF7A0FF302206214020FEF79BFF31220D
:1044600006215020FEF796FF322206216020FEF73B
:1044700091FF332206217020FEF78CFF10BD000053
:104480002D2D000010B5512200211020FEF782FFD3
:10449000522200212020FEF77DFF532200213020F0
:1044A000FEF778FF192200214020FEF773FF1A2241
:1044B00000215020FEF76EFF582200216020FEF7F9
:1044C00069FF042206210020FEF764FF0522062171
:1044D0001020FEF75FFF08233A2206212020FEF776
:1044E000DDFD1F2204210020FEF754FF20220421BD
:1044F0001020FEF74FFF08233A2204212020FEF768
:10450000CDFD00F01FFA00F091FA10BD10B55B224E
:1045100000211020FEF73EFF5C2200212020FEF744
:1045200039FF532200213020FEF734FF55220021AD
:104530004020FEF72FFF562200215020FEF72AFFD1
:10454000582200216020FEF725FF042206210020CA
:10455000FEF720FF052206211020FEF71BFF08238F
:104560003A2206212020FEF799FD1F220421002077
:10457000FEF710FF202204211020FEF70BFF082376
:104580003A2204212020FEF789FD00F0FDF900F019
:10459000BBFA10BD10B5132204211020FEF7FAFE5D
:1045A000142204212020FEF7F5FE152204213020DC
:1045B000FEF7F0FE162204214020FEF7EBFE172244
:1045C00004215020FEF7E6FE182204216020FEF7A9
:1045D000E1FE10BD10B5FFF723FC10BD10B500F0D3
:1045E00041F810BD10B5FFF727FD10BD00BFFFF764
:1045F000E3FCFEF791FC4FF4A060FEF725FD4FF4BD
:10460000E130FFF7ABFA4FF4E130FFF7FFFA42F287
:104610000F7141F61F40FFF7DFF8FEF70FFEFEF7C0
:1046200011FCFDF7DBFDFDF747FEFEF755F9FDF741
:10463000EBFEFEF711FAFDF7DBFFFEF7C5FAFEF71A
:104640008DF8FEF70BFD01E0FEF784FCFCE710B5EA
:104650000246012000E050430B00A1F10104E1B249
:10466000F9D110BD08B5382200211820FEF792FEBE
:10467000392200212820FEF78DFE04220021382057
:10468000FEF788FE052200214820FEF783FE38222F
:1046900002211820FEF77EFE392202212820FEF793
:1046A00079FE3A2202213820FEF774FE3B220221D5
:1046B0004820FEF76FFE382204211820FEF76AFE1C
:1046C000392204212820FEF765FE322204213820F9
:1046D000FEF760FE332204214820FEF75BFE3822FD
:1046E00006211820FEF756FE392206212820FEF763
:1046F00051FE3C2206213820FEF74CFE3D220621C9
:104700004820FEF747FE044808236822062100904F
:104710005820FEF757FD08BD6802002008B5382272
:1047200000211820FEF736FE392200212820FEF74E
:1047300031FE042200213820FEF72CFE0522002144
:104740004820FEF727FE382202211820FEF722FE1D
:10475000392202212820FEF71DFE3A2202213820AC
:10476000FEF718FE3B2202214820FEF713FE1848F0
:1047700004236822022100905820FEF723FD3822EE
:1047800004211820FEF706FE392204212820FEF716
:1047900001FE322204213820FEF7FCFD33220421E1
:1047A0004820FEF7F7FD382206211820FEF7F2FD1B
:1047B000392206212820FEF7EDFD3C220621382073
:1047C000FEF7E8FD3D2206214820FEF7E3FD08BD87
:1047D0006802002008B5382200211820FEF7DAFD13
:1047E000392200212820FEF7D5FD0422002138209F
:1047F000FEF7D0FD052200214820FEF7CBFD382230
:1048000002211820FEF7C6FD392202212820FEF7DA
:10481000C1FD3A2202213820FEF7BCFD3B220221D5
:104820004820FEF7B7FD382204211820FEF7B2FD1C
:10483000392204212820FEF7ADFD32220421382040
:10484000FEF7A8FD332204214820FEF7A3FD0E4801
:1048500006236822042100905820FEF7B3FC38227A
:1048600006211820FEF796FD392206212820FEF7A2
:1048700091FD3C2206213820FEF78CFD3D220621C9
:104880004820FEF787FD08BD6802002008B53822E1
:1048900000211820FEF77EFD392200212820FEF796
:1048A00079FD042200213820FEF774FD0522002145
:1048B0004820FEF76FFD2248022368220021009065
:1048C0005820FEF77FFC382202211820FEF762FDF7
:1048D000392202212820FEF75DFD3A2202213820EC
:1048E000FEF758FD3B2202214820FEF753FD3822F7
:1048F00004211820FEF74EFD392204212820FEF75E
:1049000049FD322204213820FEF744FD33220421E0
:104910004820FEF73FFD382206211820FEF73AFD19
:10492000392206212820FEF735FD3C2206213820B9
:10493000FEF730FD3D2206214820FEF72BFD08BD85
:104940006802002038B5002400250E4800680A21BE
:1049500090FBF1F40B48006890FBF1F201FB1205AB
:10496000102001232246042100902820FEF746FD56
:10497000102001232A46042100903020FEF73EFD3E
:1049800038BD00002000002038B5002400250E4866
:1049900000680A2190FBF1F40B48006890FBF1F2EB
:1049A00001FB12051020012322460421009028203B
:1049B000FEF724FD102001232A4604210090302018
:1049C000FEF71CFD38BD00002400002010B5FFF7E5
:1049D000A5FE10BD10B5FFF795FB10BD10B5FFF794
:1049E000F9FE10BD10B5FFF7E3FC10BD10B50E22A7
:1049F00004211820FEF7CEFC0F2204212820FEF708
:104A0000C9FC102204213820FEF7C4FC1122042125
:104A10004820FEF7BFFC122204215820FEF7BAFC02
:104A200010BD10B5FFF732FF10BD000008B53048CB
:104A3000006804281CD004DC002848D0012854D188
:104A400029E0092835D00D284FD11D220621282024
:104A5000FEF7A0FC1E2206213820FEF79BFC25480D
:104A600008238022062100907020FEF7ABFB3DE07A
:104A70001B2206212820FEF78DFC1C22062138204F
:104A8000FEF788FC1C480823802206210090702035
:104A9000FEF798FB2AE0462206212820FEF77AFC42
:104AA000164808238022062100907020FEF78AFB1A
:104AB0001CE0472206212820FEF76CFC1048082342
:104AC0008022062100907020FEF77CFB0EE046223B
:104AD00006212820FEF75EFC0A48082380220621D2
:104AE00000907020FEF76EFB00E000BF00BF08BD25
:104AF00018000020480100208800002068000020E5
:104B0000E80000204800002008B53048006804286C
:104B10001CD004DC002848D0012854D129E0092801
:104B200035D00D284FD11D2206212820FEF732FC5A
:104B30001E2206213820FEF72DFC2548082380225E
:104B4000062100907020FEF73DFB3DE01B22062170
:104B50002820FEF71FFC1C2206213820FEF71AFC35
:104B60001C4808238022062100907020FEF72AFBB3
:104B70002AE0462206212820FEF70CFC16480823CE
:104B80008022062100907020FEF71CFB1CE04722CB
:104B900006212820FEF7FEFB10480823802206216C
:104BA00000907020FEF70EFB0EE046220621282022
:104BB000FEF7F0FB0A4808238022062100907020AF
:104BC000FEF700FB00E000BF00BF08BD1C00002096
:104BD000480100208800002068000020E800002034
:104BE0004800002010B5FFF74DFC10BD10B5FFF7D1
:104BF0008DFC10BD10B51B48006808282FD2DFE8D7
:104C000000F02E040A10161C22284A2205214820F2
:104C1000FEF7C0FB24E04B2205214820FEF7BAFB3B
:104C20001EE04C2205214820FEF7B4FB18E04D227F
:104C300005214820FEF7AEFB12E04E220521482058
:104C4000FEF7A8FB0CE04F2205214820FEF7A2FB4F
:104C500006E0502205214820FEF79CFB00E000BF43
:104C600000BF10BD2800002010B50822022120201E
:104C7000FEF790FB092202213020FEF78BFB0A226F
:104C800002214020FEF786FB0B2202215020FEF776
:104C900081FB10BD10B50A2202212020FEF77AFB0D
:104CA0000B2202213020FEF775FB0C22022140204E
:104CB000FEF770FB0D2202215020FEF76BFB10BDAA
:104CC00010B500290AD00878002807D00548784494
:104CD000FCF770FE002801D0002010BD0248784487
:104CE00010BD0000B20A0000AA0A000010B5002999
:104CF0000AD00878002807D005487844FCF75AFE07
:104D0000002801D0002010BD0248784410BD0000EA
:104D1000960B00008E0B0000FCF77FB9000000002E
:104D200000000000002F0000000007000700001432
:104D30007F147F1400242A7F2A1200626408132340
:104D400000364955225000000503000000001C22D7
:104D50004100000041221C000014083E0814000815
:104D6000083E0808000000A06000000808080808C5
:104D7000000060600000002010080402003E51495D
:104D8000453E0000427F40000042615149460021FB
:104D900041454B31001814127F1000274545453915
:104DA000003C4A4949300001710905030036494970
:104DB000493600064949291E000036360000000029
:104DC0005636000000081422410000141414141474
:104DD000000041221408000201510906003249591D
:104DE000513E007C1211127C007F49494936003E39
:104DF00041414122007F4141221C007F49494941F4
:104E0000007F09090901003E4149497A007F0808ED
:104E1000087F0000417F4100002040413F01007FAA
:104E200008142241007F40404040007F020C027F76
:104E3000007F0408107F003E4141413E007F090988
:104E40000906003E4151215E007F091929460046AE
:104E5000494949310001017F0101003F4040403F85
:104E6000001F2040201F003F4038403F00631408CF
:104E700014630007087008070061514945430000AA
:104E80007F41410000552A552A55000041417F00CD
:104E900000040201020400404040404000000102C2
:104EA0000400002054545478007F484444380038AB
:104EB0004444442000384444487F00385454541833
:104EC00000087E0901020018A4A4A47C007F080445
:104ED00004780000447D4000004080847D00007F15
:104EE000102844000000417F4000007C0418047832
:104EF000007C0804047800384444443800FC24242E
:104F000024180018242418FC007C08040408004815
:104F10005454542000043F444020003C4040207C36
:104F2000001C2040201C003C4030403C0044281025
:104F30002844001CA0A0A07C004464544C441414D9
:104F40001414141400000000000000000000000011
:104F500000000000000000F8000000000000003326
:104F60003000000000100C06100C060000000000CD
:104F70000000000040C07840C0784000043F0404B6
:104F80003F040400007088FC08300000001820FF77
:104F9000211E0000F008F000E018000000211C03B2
:104FA0001E211E0000F00888700000001E2123242E
:104FB0001927211010160E0000000000000000004C
:104FC00000000000000000E01804020000000007DC
:104FD0001820400000020418E000000000402018E3
:104FE00007000000404080F0804040000202010FB6
:104FF00001020200000000F0000000000101011F9A
:1050000001010100000000000000000080B07000FD
:10501000000000000000000000000000000101018D
:10502000010101010000000000000000003030001C
:1050300000000000000000008060180400601806F6
:105040000100000000E010080810E000000F102030
:1050500020100F00001010F8000000000020203F7A
:105060002020000000700808088870000030282404
:1050700022213000003008888848300000182020A5
:1050800020110E000000C02010F8000000070424CA
:10509000243F240000F8088888080800001921200F
:1050A00020110E0000E0108888180000000F112069
:1050B00020110E0000380808C83808000000003F22
:1050C000000000000070880808887000001C222181
:1050D00021221C0000E010080810E000000031222E
:1050E00022110F00000000C0C000000000000030CE
:1050F0003000000000000080000000000000806020
:1051000000000000000080402010080000010204A0
:105110000810200040404040404040000404040487
:105120000404040000081020408000000020100843
:1051300004020100007048080808F0000000003078
:1051400036010000C030C828E810E0000718272406
:1051500023140B000000C038E0000000203C2302B4
:105160000227382008F8888888700000203F202017
:1051700020110E00C0300808080838000718202049
:105180002010080008F808080810E000203F202040
:1051900020100F0008F88888E8081000203F202021
:1051A0002320180008F88888E8081000203F200015
:1051B00003000000C030080808380000071820204D
:1051C000221E020008F808000008F808203F21010C
:1051D00001213F20000808F8080800000020203FB7
:1051E0002020000000000808F8080800C080808027
:1051F0007F00000008F888C028180800203F200120
:105200002638200008F8080000000000203F202079
:105210002020300008F8F800F8F80800203F003F90
:10522000003F200008F830C00008F808203F2000A8
:1052300007183F00E01008080810E0000F102020B9
:1052400020100F0008F808080808F000203F21018E
:1052500001010000E01008080810E0000F182424E5
:1052600038504F0008F8888888887000203F200058
:10527000030C30200070880808083800003820210E
:1052800021221C00180808F8080818000000203F18
:105290002000000008F808000008F808001F20207F
:1052A00020201F000878880000C838080000073850
:1052B0000E010000F80800F80008F800033C0700A1
:1052C000073C0300081868808068180820302C0309
:1052D000032C30200838C800C83808000000203FE0
:1052E0002000000010080808C838080020382621CF
:1052F00020201800000000FE020202000000007FD3
:1053000040404000000C30C00000000000000001E0
:105310000638C00000020202FE00000000404040CB
:105320007F000000000004020202040000000000F0
:10533000000000000000000000000000808080806D
:105340008080808000020204000000000000000055
:1053500000000000000080808080000000192422EE
:1053600022223F2008F8008080000000003F11202A
:1053700020110E000000008080800000000E11202F
:1053800020201100000000808088F800000E11200D
:1053900020103F200000808080800000001F22221B
:1053A00022221300008080F0888888180020203F87
:1053B000202000000000808080808000006B94949A
:1053C0009493600008F8008080800000203F210056
:1053D00000203F2000809898000000000020203F1F
:1053E00020200000000000809898000000C080800D
:1053F000807F000008F8000080808000203F2402A9
:105400002D302000000808F8000000000020203F98
:10541000202000008080808080808000203F20004D
:105420003F20003F8080008080800000203F2100DE
:1054300000203F200000808080800000001F20208E
:1054400020201F00808000808000000080FFA120BD
:1054500020110E000000008080808000000E1120CE
:1054600020A0FF80808080008080800020203F215D
:105470002000010000008080808080000033242410
:1054800024241900008080E0808000000000001FBC
:10549000202000008080000000808000001F20206D
:1054A00020103F20808080000080808000010E302E
:1054B0000806010080800080008080800F300C038F
:1054C0000C300F0000808000808080000020312E92
:1054D0000E312000808080000080808080818E706E
:1054E0001806010000808080808080000021302C20
:1054F0002221300000000000807C02020000000039
:10550000003F404000000000FF00000000000000DD
:10551000FF0000000002027C800000000040403FCD
:105520000000000000060101020204040000000067
:10553000000000000400000800000000000000025D
:10554000000100001000000000000000000000004A
:1055500030313233343536373839414243444546A9
:1055600040305800303132333435363738396162A3
:10557000636465664030780002400000000000A0CF
:105580000000000005400000000000C8000000000E
:105590000C4000000000409C00000000194000008A
:1055A0000020BCBE0000000034400000BFC91B8EBC
:1055B00000000004B5400000504BCFD06607E2CF9A
:1055C000010000006C4100003E8251AADFEEA734CA
:1055D00001000000D9420000DCB5A0E23A301F977C
:1055E000FFFFFFFFB4450000FD25A0C8E9A3C14FA0
:1055F000FFFFFFFFFF3F00000000008000000000F1
:10560000FF3F0000000000800000000047455420DC
:1056100068747470733A2F2F6170692E73656E69A8
:1056200076657273652E636F6D2F76332F776561A4
:10563000746865722F6E6F772E6A736F6E3F6B653D
:10564000793D534248436277354D726D4F72364211
:105650004C714E266C6F636174696F6E3D63686157
:105660006E67736861266C616E67756167653D7A08
:10567000682D48616E7326756E69743D630A0D006E
:105680004745542068747470733A2F2F6170692EE7
:1056900073656E6976657273652E636F6D2F7633F1
:1056A0002F776561746865722F6E6F772E6A736FDE
:1056B0006E3F6B65793D534248436277354D726D5D
:1056C0004F7236424C714E266C6F636174696F6E17
:1056D0003D6A69756A69616E67266C616E6775619E
:1056E00067653D7A682D48616E7326756E69743DF5
:1056F000630A0D0047455420687474703A2F2F6177
:1057000070692E6B3738302E636F6D3A38382F3F03
:105710006170703D6C6966652E74696D6526617097
:10572000706B65793D3130303033267369676E3D7B
:10573000623539626333656636313931656239669F
:1057400037343764643465383363393966326134E9
:1057500026666F726D61743D6A736F6E0A0D00008C
:10576000AC58000800000020D81A00006C010008A6
:10577000C4630008D81A002078080000D00100088F
:105780001001000043000000F8FFFFFF0040404010
:105790004040404040404141414141404040404004
:1057A00040404040404040404040404040050202B0
:1057B000020202020202020202020202022020206F
:1057C00020202020202020020202020202029090CB
:1057D00090909090101010101010101010101010C9
:1057E000101010101010101002020202020288881D
:1057F0008888888808080808080808080808080829
:105800000808080808080808020202024000000010
:105810000000000000000000000000000000000088
:105820000000000000000000000000000000000078
:105830000000000000000000000000000000000068
:105840000000000000000000000000000000000058
:105850000000000000000000000000000000000048
:105860000000000000000000000000000000000038
:105870000000000000000000000000000000000028
:105880000000000000000000000000000000000018
:105890001C00000043000000F8FFFFFF0C000000A8
:1058A0000E0000000F0000002E000000500600A2B5
:1058B0004A040001000A3101020304060708090036
:1058C00001802880868E0CC0603097973060C00CB5
:1058D0008E86800161713003060CE9E90C06033005
:1058E00071610100E0F8FC1E060231100F071F1F56
:1058F0003F3C787870707078383C0E411121101B55
:105900003C0E0E8E4C7860C0C0800000233B3B33C1
:10591000332709080B0B0B0A0B073912805F10099C
:10592000B0E080A870D870A87170100E0F080F0B2F
:105930000A090D0B0D0D0A0A0C00200006118082C9
:10594000C6FC78202380C0571008C0F0F8F8F8F0A3
:10595000E06010040F0F1F0120091D1B17171F1FE8
:105960000F0720100DE07028C87040C0D4386C3884
:1059700074A0100E65140706046617070407651562
:10598000066013E0383E3005FCBC9C840B200F0001
:105990003F01006131190F070301003E017F300B09
:1059A000E0F8F8FCFE7EBEDCF0E0C0100C631303F0
:1059B0000303066717070707050213022033631660
:1059C0001D112101132023631340310301104010E6
:1059D0000453235360115E24060707572757597253
:1059E0009801459372190125A1101FC0241410209D
:1059F0004484844420101424C00000032428080494
:105A00002221212204082824032F380C105054523C
:105A1000524C40484444380D3101000921193121CC
:105A20002121321C00201006489424324A014405EA
:105A300032A45808E3340803152B4A2B1905F51531
:105A40005F12F0E07AFF6C700703070F1F3F7F10B3
:105A5000080F1004244484649C40300FC8080828B0
:105A60001860F81010080601824C2018060106186C
:105A700020408080100A404042CC0000FC04020418
:105A80000B1104FCA1080F1040201F20404F44427E
:105A9000407F42444340C0100A60F80704E42424D5
:105AA00024FF040B11E404E2000D10FF0080814587
:105AB00029112F414181818010050000FE22014102
:105AC000050D1220031004601F02010007127F025F
:105AD0000242827F9F2340420132FE06021140A013
