:020000040800F2
:10000000C0230020450100089D1C0008951A000827
:10001000191C00086B0D00083128000800000000C2
:10002000000000000000000000000000B5220008F1
:100030006F0D0008000000009F210008C923000880
:100040005F0100085F0100085F0100085F01000810
:100050005F0100085F01000819190008491900082C
:100060005F0100085F0100085F0100085F010008F0
:100070005F0100085F0100085F0100085F010008E0
:100080005F0100085F0100085F0100085F010008D0
:100090005F0100085F0100085F0100085F010008C0
:1000A0005F0100085F0100085F0100085F010008B0
:1000B0002D2400085F0100085F0100085F010008AF
:1000C0005F0100085F0100085F0100085F01000890
:1000D0005F01000805260008212600085F010008CE
:1000E0005F0100085F0100085F0100085F01000870
:1000F0005F0100085F0100085F0100085F01000860
:100100005F0100085F0100085F0100085F0100084F
:100110005F0100085F0100085F0100085F0100083F
:100120005F0100085F0100085F0100085F0100082F
:10013000DFF80CD000F048FB00480047CD3B00083A
:10014000C02300200648804706480047FEE7FEE738
:10015000FEE7FEE7FEE7FEE7FEE7FEE7FEE7FEE777
:10016000CD23000831010008D2B201E000F8012BD4
:10017000491EFBD270470022F6E710B513460A4627
:1001800004461946FFF7F0FF204610BD30B505467E
:100190002A460B4612F8010B13F8014B08B1A04296
:1001A000F8D01CB1002802D06D1CF1E7284630BD04
:1001B000421C10F8011B0029FBD1801A7047000077
:1001C0000FB400B58DB010A909900B9000914FF0BD
:1001D000FF300A9000200C900548069005480790D3
:1001E0006A4609A80F9900F0D1F80DB05DF814FB2C
:1001F000A9030008C70300082DE9FF5FD2E901A7A2
:100200004FF00008916999461446DDF838B046462B
:1002100001988847054659EA0B0005D009E0A16915
:10022000761C019888470546216A28468847002899
:10023000F5D1681C03D05FEACA7005D015E04FF015
:10024000FF3004B0BDE8F09F2068011D2160D0F8A8
:1002500000800AE05FEACA7001D108F8015BA16979
:10026000761C7F1E019888470546002F1ADD681C02
:1002700018D0B9F1000F0DD0E81705EBD06042118E
:1002800020F01F0059F822102A1A01209040014244
:10029000E0D107E0BBF1000FDCD1216A2846884796
:1002A0000028D7D0E16901988847BBF1000F07D13A
:1002B000002E05DD5FEACA7002D1002188F8001027
:1002C000A068B84203DDBBF1000F03D017B16FF097
:1002D0000100B6E73046B4E770B5064602F00AFC06
:1002E000046805460A220021304600F07DF82C60A3
:1002F00070BD30B50B46014600202022012409E0E4
:1003000021FA02F59D4205D303FA02F5491B04FACE
:1003100002F52844151EA2F10102F1DC30BD2DE9E1
:10032000F05F0546002092469B4688460646814679
:1003300040241BE0284641464746224600F065FA25
:1003400053465A46C01A914110D3114618462246C8
:1003500000F04CFA2D1A67EB01084F4622460120A7
:10036000002100F043FA17EB00094E41201EA4F1D2
:100370000104DFDC484631462A464346BDE8F09F8B
:10038000026811441378016018467047D16004492F
:1003900051610449116200211161114600F066BAF1
:1003A0008103000859080008426842B1016811F849
:1003B000013B23B1521EC0E90012184670470121CB
:1003C000C160881E704742685AB1C368016843B96A
:1003D00083688B4205D0491E521CC0E900120020E0
:1003E00070474FF0FF3070472DE9F04791460F46B8
:1003F00080460446002614F8015B2DB100F028FA6F
:100400000068405DC007F6D12B2D02D02D2D18D0ED
:10041000641E4A463946204600F0BEFB27B13968C3
:10042000A14201D1C7F8008071054FF002040BD53D
:100430004042002803DD02F05DFB0460A007BDE838
:10044000F08746F48066E4E70028F8DA02F052FB11
:1004500004606FF00040F2E72DE9FE4F804681EA2C
:100460000300C00F0C46009021F0004123F000452E
:10047000B8EB0200A94105D24046214690461C46F1
:100480000B46024623F00040104347D0270DC7F328
:100490000A00C3F30A510290401A019040286BDA17
:1004A000C3F3130040F4801B0098924620B1002350
:1004B000D2EB030A63EB0B0B01985946C0F14002E3
:1004C000504600F093F906460D4650465946019AAB
:1004D00000F0ABF910EB08006141002487EA1152EB
:1004E00084EAE7731A4340D0009A62B3019A012A62
:1004F0004FEA075215DC001B61EB02014FF000428E
:1005000002EA0752CDE90042001C41F58011324653
:100510002B4600F09FFB03B0BDE8F08F404621461C
:10052000F9E7001B61EB0201001C41F58013001884
:100530005B412018A2F5001747EB030140EAD57094
:10054000B6196D4111E06D084FEA360645EAC075EF
:100550004FEA0752001B61EB0201001C41F58011BC
:1005600049084FEA30000019514132462B4603B08A
:10057000BDE8F04F00F05FBB00980122400000236F
:10058000D0EB020263EBE073009821464FEAE0747F
:10059000B8EB000061EB0401E9E783F000435BE79F
:1005A00081F0004158E72DE9FE4F81EA030404F091
:1005B000004421F0004100944FF0000B23F0004371
:1005C00050EA01045ED052EA03045BD0C3F30A543C
:1005D000C1F30A552C44A4F2F3340194A0FB025455
:1005E000C1F3130141F48011C3F3130343F48013E7
:1005F00001FB024400FB034E840A970A44EA81543B
:1006000047EA8357A4FB076802958D0A05FB078517
:100610004FEA932C04FB0C542705029D4FEA065821
:1006200047EA1637B5EB08056EEB070C870E920EFE
:1006300047EA811742EA8312A7FB0201B6EB0B01DE
:1006400064EB00042B0D43EA0C335E1844EB1C50A2
:10065000DA465146E7FB0201C5F313044FEA0B33B8
:1006600043EA14534FEA0432019C43EA0603A4F11F
:100670000C040294009CCDE900B400F0EBFA03B046
:10068000BDE8F08F00200146F9E72DE9F04D81EA41
:10069000030404F0004B21F0004514464FF0000A1B
:1006A00023F0004150EA050220D054EA01021DD097
:1006B000C5F30A570246C5F31303C1F31300C1F390
:1006C0000A5640F4801543F48013A7EB0608101B6C
:1006D000D64608F2FD3873EB050002D308F1010895
:1006E00001E092185B41B8F1000F03DA00200146E7
:1006F000BDE8F08D00204FF48011064684460EE0E0
:10070000171B73EB050705D3121B63EB05030643A9
:100710004CEA010C49084FEA300092185B4150EA5C
:100720000107EDD152EA030012D082EA040083EA05
:100730000501084305D0101BAB4106D2012200235E
:1007400006E000224FF0004302E06FF00102531078
:100750001AEB06004CEB085110EB0A0041EB0B01C1
:10076000BDE8F04D00F067BAC1F30A52C1F31301BE
:1007700040F2FF3341F480119A4202DA0020014630
:10078000704740F233439A42A2F2334202DC5242B3
:1007900000F03BB800F02AB830B5041E71F1000437
:1007A00004DB4FF00044404264EB0101141E73F17E
:1007B000000405DB1C464FF00043524263EB040388
:1007C000994208BF904230BD064C074D06E0E068F4
:1007D00040F0010394E8070098471034AC42F6D388
:1007E000FFF7AAFC4C4E00086C4E0008202A04DBE0
:1007F000203A00FA02F1002070479140C2F1200334
:1008000020FA03F3194390407047202A04DB203A72
:1008100021FA02F00021704721FA02F3D040C2F120
:1008200020029140084319467047202A06DBCB1767
:10083000203A41FA02F043EAE07306E041FA02F39B
:10084000D040C2F120029140084319467047000091
:1008500000487047F44C000810B50446FFF7F8FF55
:100860000068005D00F0010010BD00002DE9F34FAD
:100870008BB04FF0000801F10C000C464FF0010B5B
:1008800046460DF1080A01906269012101989047DE
:1008900005002DD0252D2CD0216A8847C0B1626972
:1008A000012101989047216A88470028F7D1411E0D
:1008B00062690198904700E0761CA1690B9888470F
:1008C000216A88470028F7D1E1690B988847DBE760
:1008D000A1690B9888470746A84201D1761CD3E747
:1008E000E1690B9888477F1C02D1B8F1000F6FD0E7
:1008F00046E1002762693D463946019890472A281B
:1009000004D162690121019890470125DFF88492A2
:100910006269012101989047A0F130010A290AD2A9
:100920004F45E5DC07EB870100EB4107303FDFD4A3
:1009300045F01005ECE7E90601D46FF000476C289C
:100940000AD04C2814D0682815D06A280DD07428F5
:100950001CD07A281AD01DE06269012101989047C5
:100960006C2802D045F0040514E045F002050DE0C6
:1009700045F020050AE06269012101989047682846
:1009800002D045F0080505E045F4006562690121E3
:1009900001989047C4E9015765283DD019DC5828D3
:1009A0007AD00CDC452837D004DC252826D0412815
:1009B00031D131E046282FD047282CD12CE05B28BC
:1009C00077D0612828D063287CD0642823D15AE0CE
:1009D000D0E06F2848D008DC66281DD067281BD0DF
:1009E000692821D06E2816D127E0702845D07328B9
:1009F00068D0752847D078280DD14DE0A1690B98B3
:100A00008847054625283FF469AFE1690B98884778
:100A10006D1C3FF46AAFB3E023466A466FF00100F5
:100A20000B99AFF300809EE045F040006060A8079E
:100A300023464FF0000236D43EE0E8077FF447AF8C
:100A40002068011D21600068290501D506701BE79B
:100A5000290701D5068017E7A90703D5F117C0E9D3
:100A6000006111E706600FE745F040006060A807ED
:100A700023464FF0080216D41EE040F60E0125EA88
:100A80000100606016E045F040006060A807234662
:100A90004FF00A0207D40FE045F040006060A8075D
:100AA00008D5234610226FF001000B99AFF30080A8
:100AB00059E007E0234610226FF001000B99AFF3D5
:100AC000008050E04FF000094F464B46632802D0AB
:100AD0005B2806D040E0E80601D40120A060012791
:100AE0003AE062690121019890475E2805D14FF0F4
:100AF00001096269494601989047216939B9002185
:100B00000A46534643F82120491C0829FADBB0B3B2
:100B1000216969B9C11700EBD16253110AEB830156
:100B200022F01F02821A01200B68904003430B60E1
:100B300062690121019890475D28E8D1B9F1000F61
:100B400009D00020514651F82020D24341F82020FE
:100B5000401C0828F7DB02AB224600976FF001002B
:100B60000B99FFF749FB00280CDA401C08D1BBF1B8
:100B7000000F05D04FF0FF300DB0BDE8F08FFFE75C
:100B80004046F9E7E90701D108F1010806444FF0B2
:100B9000000B79E6CCCCCC0C2DE9F05F82460078D6
:100BA000002715468B460AF10104B946302801D0CA
:100BB0009DB113E014F8010B0127782803D05828C1
:100BC00001D045B10AE00DB1102D07D10027102545
:100BD00014F8010B02E0082500E00A250026B046C3
:100BE0000EE005FB080005FB06F1012701EB1046AE
:100BF0001FFA80F8B6F5803F00D3B94614F8010B10
:100C0000294600F075F80028EBDABBF1000F05D09B
:100C10000FB1641E00E05446CBF80040B9F1000F5C
:100C200006D001F067FF02210160C81EBDE8F09FF9
:100C300048EA0640FAE710B5141E73F1000408DA1A
:100C4000401C41F1000192185B411A4301D120F090
:100C5000010010BD2DE9F04D92469B4611B1B1FA4D
:100C600081F202E0B0FA80F220329046FFF7BEFD3A
:100C700004460F4640EA0A0041EA0B0153465A4631
:100C8000084313D0114653EA010019D0C8F14002BD
:100C90005046FFF7BAFD05460E46504659464246B5
:100CA000FFF7A4FD084305D0012004E020463946A3
:100CB000BDE8F08D0020054346EAE0762C4337433B
:100CC0000A986305E40AA0EB08000022FD0A44EA42
:100CD00047540A3002D500200146E9E70105101902
:100CE0006941DDE9084500196941BDE8F04DA2E719
:100CF0003A2800D2303820F02002412A01D3A2F154
:100D00003700884201D34FF0FF30704770B58D181F
:100D100010F8014B14F0030201D110F8012B23113C
:100D200006D110F8013B03E010F8016B01F8016BEC
:100D3000521EF9D1ABB110F8012B04F00C048A1A41
:100D40000C2C03D0A2EB84129B1C08E010F8014B82
:100D5000A2EB0422F8E712F8014B01F8014B5B1EED
:100D6000F9D5A942D4D3002070BD00BFFEE770477B
:100D700010B54FF400710348FFF7FDF90020024958
:100D8000088010BDA81B00201400002008B5012118
:100D9000102001F015FA10208DF803008002ADF844
:100DA000000003208DF8020069460C4800F0DEFDCB
:100DB00000224FF48041094800F067FEFA2002F05B
:100DC000EFFB01229103054800F05FFE4FF4FA703B
:100DD00002F0E6FBFFF7CCFF08BD00000010014069
:100DE0002DE9F04104460D46C8262046FFF7E0F9FC
:100DF00087B23A4621460D4801F0EEFD0FE000F0C3
:100E000019F848B929460A48FFF7C0F920B1FFF799
:100E1000AFFF0020BDE8F0810A2002F0C1FB3000E6
:100E2000A6F10101CEB2EAD10120F3E7004400406F
:100E3000A81B00200A48008808B90120704708480C
:100E4000008808490988884203D1002004490880A5
:100E5000F4E703480088034908800120EEE700001A
:100E6000140000201600002010B503F0A5FA03F0CE
:100E7000EDF829A12A4801F08BFD03E04FF4FA7048
:100E800002F08EFB27A128A0FFF7AAFF0028F5D1CA
:100E900027A1234801F07CFD03E04FF4FA7002F033
:100EA0007FFB22A125A0FFF79BFF0028F5D103E0DF
:100EB0004FF4FA7002F074FB1CA123A0FFF790FF1F
:100EC0000028F5D124A1164801F062FD03E04FF49B
:100ED000FA7002F065FB13A122A0FFF781FF002842
:100EE000F5D124A10E4801F053FD03E04FF4FA7050
:100EF00002F056FB24A126A0FFF772FF0028F5D1CF
:100F00002C49086000F00EFF03F090FA02F032FE68
:100F100000202949087010BD302E2041540D0A00D0
:100F2000003801404F4B000041540D0A0000000002
:100F3000312E205253540D0A0000000041542B5210
:100F400053540D0A0000000041542B434950434CB8
:100F50004F53450D0A000000322E2043574D4F4499
:100F6000450D0A0041542B43574D4F44453D310D2B
:100F70000A000000332E20434F4E4E454354205765
:100F80004946490D0A000000474F542049500000CF
:100F900041542B43574A41503D2270657266656348
:100FA00074222C2231323233333334343434220D30
:100FB0000A000000B40122427C1B002010B503F09F
:100FC000FBF903F043F829A12A4801F0E1FC03E012
:100FD0004FF4FA7002F0E4FA27A128A0FFF700FF0F
:100FE0000028F5D127A1234801F0D2FC03E04FF4FB
:100FF000FA7002F0D5FA22A125A0FFF7F1FE002831
:10100000F5D103E04FF4FA7002F0CAFA1CA123A054
:10101000FFF7E6FE0028F5D124A1164801F0B8FC40
:1010200003E04FF4FA7002F0BBFA13A122A0FFF71D
:10103000D7FE0028F5D124A10E4801F0A9FC03E059
:101040004FF4FA7002F0ACFA24A126A0FFF7C8FE14
:101050000028F5D12C49086000F064FE03F0E6F9A1
:1010600002F088FD00202949087010BD302E204173
:10107000540D0A00003801404F4B000041540D0A46
:1010800000000000312E205253540D0A00000000D1
:1010900041542B5253540D0A0000000041542B437D
:1010A0004950434C4F53450D0A000000322E204357
:1010B000574D4F44450D0A0041542B43574D4F4463
:1010C000453D310D0A000000332E20434F4E4E4562
:1010D000435420574946490D0A000000474F542009
:1010E0004950000041542B43574A41503D22434D43
:1010F00043432D333031222C2232303032303631DE
:1011000032220D0A00000000B40122427C1B0020A4
:1011100030B587B0002006906A225649564801F043
:101120005BFC4FF4FA7002F03BFA544A54A1594860
:1011300001F02EFC58A15148FFF728F800F10E04E9
:1011400059A14E48FFF722F800F10A0528780690C9
:1011500006A8FFF7C1F857490860084656A102687B
:101160004C4801F015FC01AA56A12046FFF728F8CB
:1011700001AA56A1474801F00BFC9DF80400303845
:101180004FF47A7148439DF80510303901EBC102E4
:1011900002EB011100EB81019DF80600303800EBF5
:1011A000800001EB40019DF80700303808444A49AF
:1011B00008609DF80A0030389DF80910303901EBBD
:1011C000810100EB4100444948609DF80D00303832
:1011D0009DF80C10303901EB810100EB41003E49D4
:1011E00088609DF8100030389DF80F10303901EB01
:1011F000810100EB41003849C8609DF81300303888
:101200009DF81210303901EB810100EB41003249A9
:1012100008619DF8160030389DF81510303901EB43
:10122000810100EB41002C494861084600682B49C8
:101230000860294840682A49086027488068294989
:1012400008602548C0682849086023480069274984
:10125000086021484069401C25490860032225A1F7
:10126000054801F0B9FB4FF47A7002F099F907B024
:1012700030BD0000E04D000800440040A81B0020E5
:101280006765742074696D6520646174613A2573C3
:101290000A00000000380140226461746574696DC1
:1012A000655F31223A000000227765656B5F31226D
:1012B0003A000000280000207765656B3D25640A30
:1012C00000000000255B5E225D00000074696D6512
:1012D0003D25730A00000000A81D002030000020FA
:1012E00034000020380000203C0000204000002096
:1012F000440000202B2B2B002DE9FF41022002F09F
:101300009FFC0546022002F09BFC0646062002F0E8
:1013100097FC0746002002900390019000907322F2
:101320003049314801F058FB4FF4FA7002F038F9B7
:101330002E4A2FA1344801F02BFB34A12B48FEF795
:1013400025FF00F1080733A12848FEF71FFF00F131
:10135000080632A12548FEF719FF00F10F05002409
:1013600004E017F8010B02A90855641C062CF8DBF1
:10137000002408E016F8010B01A9085515F8010B27
:101380000DF80400641C022CF4DB304602F0CAFBAA
:10139000384602F0C7FB284602F0C4FB01A8FEF75E
:1013A0009BFF224908606846FEF796FF20490860C7
:1013B00002AA20A1144801F0EBFA01AA21A11248C7
:1013C00001F0E6FA6A4622A10F4801F0E1FA032291
:1013D00023A1054801F000FB4FF47A7002F0E0F819
:1013E000BDE8FF81F84C000800440040A81B002025
:1013F00067657420776561746865722064617461E3
:101400003A25730A0000000000380140226E616D29
:1014100065223A0022636F6465223A002274656D8A
:101420007065726174757265223A000018000020C0
:10143000200000206C6F636174696F6E3D25730A34
:1014400000000000776561746865723D25730A00CD
:1014500074656D70657261747572653D25730A00FF
:101460002B2B2B002DE9FF41002500260027002013
:10147000029003900190009072223249324801F0AC
:10148000ABFA4FF4FA7002F08BF8304A30A13648CC
:1014900001F07EFA35A12D48FEF778FE00F108072D
:1014A00034A12A48FEF772FE00F1080533A127484F
:1014B000FEF76CFE00F10F06002404E017F8010BA4
:1014C00002A90855641C062CF8DB02AA2FA12648A5
:1014D00001F05EFA002408E015F8010B01A9085597
:1014E00016F8010B0DF80400641C022CF4DB01A8B3
:1014F000FEF7F2FE294908606846FEF7EDFE28492E
:10150000086001AA27A1184801F042FA6A4629A1F9
:10151000154801F03DFA03222BA10B4801F05CFABB
:101520004FF47A7002F03CF803E04FF4FA7002F0E6
:1015300037F826A126A0FFF753FC0028F5D1BDE817
:10154000FF8100006C4D000800440040A81B0020F3
:101550006765742077656174686572206461746181
:101560003A25730A0000000000380140226E616DC8
:1015700065223A0022636F6465223A002274656D29
:101580007065726174757265223A00006C6F6361F8
:1015900074696F6E313D25730A0000001C00002045
:1015A0002400002077656174686572313D25730AF7
:1015B0000000000074656D7065726174757265314C
:1015C0003D25730A000000002B2B2B004F4B000021
:1015D00041542B434950434C4F53450D0A000000E2
:1015E00010B52248006870B121A1254801F0D0F95A
:1015F00003E04FF4FA7001F0D3FF22A122A0FFF71D
:10160000EFFB0028F5D124A11D4801F0C1F903E04A
:101610004FF4FA7001F0C4FF25A127A0FFF7E0FB0B
:101620000028F5D12EA1164801F0B2F903E04FF4DD
:10163000FA7001F0B5FF13A12DA0FFF7D1FB002830
:10164000F5D12FA10E4801F0A3F903E04FF4FA7091
:1016500001F0A6FF0BA12EA0FFF7C2FB0028F5D1D9
:1016600002480068401C0149086010BD2C000020A1
:1016700031322E2043574D4F44450D0A00000000E3
:10168000003801404F4B000041542B43574D4F440D
:10169000453D310D0A000000342E20544350207483
:1016A000696D6520636F6E6E6563740D0A000000DE
:1016B000434F4E4E4543540041542B4349505354DD
:1016C0004152543D22544350222C226170692E6BAA
:1016D0003738302E636F6D222C38300D0A00000031
:1016E000352E204349504D4F44450D0A000000005F
:1016F00041542B4349504D4F44453D310D0A0000A4
:10170000362E2043495053454E440D0A0000000038
:1017100041542B43495053454E440D0A00000000EC
:1017200010B526A1294801F033F903E04FF4FA700F
:1017300001F036FF26A127A0FFF752FB0028F5D1C4
:1017400028A1224801F024F903E04FF4FA7001F0D7
:1017500027FF1FA126A0FFF743FB0028F5D128A1F2
:101760001A4801F015F903E04FF4FA7001F018FF80
:101770002AA12CA0FFF734FB0028F5D134A113488F
:1017800001F006F903E04FF4FA7001F009FF10A12F
:1017900033A0FFF725FB0028F5D135A10B4801F058
:1017A000F7F803E04FF4FA7001F0FAFE08A134A054
:1017B000FFF716FB0028F5D110BD0000372E20439F
:1017C0004950434C4F53450D0A000000003801407A
:1017D0004F4B000041542B434950434C4F53450D50
:1017E0000A000000372E2043574D4F44450D0A0094
:1017F00041542B43574D4F44453D310D0A000000E5
:10180000382E2054435020776561746865722063D8
:101810006F6E6E6563740D0A00000000434F4E4EFC
:101820004543540041542B43495053544152543D75
:1018300022544350222C226170692E73656E6976A2
:10184000657273652E636F6D222C38300D0A0000AF
:10185000392E204349504D4F44450D0A00000000E9
:1018600041542B4349504D4F44453D310D0A000032
:1018700031302E2043495053454E440D0A0000009C
:1018800041542B43495053454E440D0A000000007B
:1018900010B50FA1124801F07BF803E04FF4FA7085
:1018A00001F07EFE0FA110A0FFF79AFA0028F5D1F3
:1018B00011A10B4801F06CF803E04FF4FA7001F04D
:1018C0006FFE08A110A0FFF78BFA0028F5D110BD1C
:1018D000392E204349504D4F44450D0A0000000069
:1018E000003801404F4B000041542B4349504D4FAD
:1018F00044453D310D0A000031302E2043495053FC
:10190000454E440D0A00000041542B4349505345B5
:101910004E440D0A0000000010B50A2001F040FE00
:1019200007480068012807D10648006808B9012067
:1019300000E0002003490860012000F011F810BD0C
:1019400000812142B401224210B50A2001F028FE94
:1019500002480068022000F003F810BD0481214213
:101960000149086070470000140401402DE9F0416E
:10197000024600250026002000230024002791F8BD
:1019800003C00CF00F0591F803C00CF0100CBCF173
:10199000000F03D091F802C04CEA050591F800C091
:1019A000BCF1000F31D0146800202BE04FF0010C87
:1019B0000CFA00F3B1F800C00CEA03069E4220D1F5
:1019C00083004FF00F0C0CFA03F7BC4305FA03FC3D
:1019D0004CEA040491F803C0BCF1280F06D14FF083
:1019E000010C0CFA00FCC2F814C00AE091F803C024
:1019F000BCF1480F05D14FF0010C0CFA00FCC2F805
:101A000010C0401C0828D1D31460B1F800C0BCF14C
:101A1000FF0F34DD546800202EE000F1080C4FF079
:101A2000010808FA0CF3B1F800C00CEA03069E4264
:101A300021D183004FF00F0C0CFA03F7BC4305FAD9
:101A400003FC4CEA040491F803C0BCF1280F05D153
:101A500000F1080C08FA0CF8C2F8148091F803C0E1
:101A6000BCF1480F07D100F1080C4FF0010808FA4B
:101A70000CF8C2F81080401C0828CED35460BDE892
:101A8000F08141617047016170470AB1016100E076
:101A90004161704700BFFEE710B54FF480710948FF
:101AA000FFF7F1FF4FF400710648FFF7ECFF4FF42A
:101AB00000710448FFF7E5FF4FF480710148FFF71C
:101AC000E0FF10BD000C014010B54FF480710748D5
:101AD000FFF7D9FF4FF400710448FFF7D2FF4FF42E
:101AE00000710248FFF7CFFF10BD0000000C01405D
:101AF00010B54FF480710448FFF7C5FF4FF48071B3
:101B00000148FFF7BEFF10BD000C014008B50121E0
:101B1000082000F055FB0120ADF8000048208DF8AA
:101B2000030069460C48FFF721FF0220ADF80000D2
:101B300048208DF8030069460748FFF717FF4FF468
:101B40008060ADF8000048208DF803006946024827
:101B5000FFF70CFF08BD0000000C014010B5044663
:101B600014B101201C4908701B48007808B31B48B9
:101B7000006838B11948001D006818B117482830AE
:101B80000068B0B9282001F00BFD00201249087050
:101B90001248006808B9012010BD1048001D0068F7
:101BA00008B90220F8E70D482830006888B90320FA
:101BB000F2E70A48006801280BD10848001D0068B8
:101BC000012806D1054828300068012801D10249C2
:101BD00008700020E0E700007D1B0020008121420A
:101BE00008B50121102000F0EBFA4FF40050ADF8D9
:101BF000000010208DF8030003208DF802006946D4
:101C00000448FFF7B3FE4FF400510248FFF73BFFD3
:101C100008BD00000010014000BFFEE710B5012024
:101C2000FFF79CFF022809D119481A49097800EBEF
:101C3000C10040781749087000F074F80120FFF7E0
:101C40008DFF012809D112481249097800EBC10023
:101C500080781049087000F065F80120FFF77EFFDA
:101C6000032809D10A480B49097800EBC100C07864
:101C70000849087000F056F805480649097800EB55
:101C8000C10040680449086008460068804710BDEC
:101C90008C1A00207C1B0020881A0020704700004E
:101CA00070B5002100230F22C47804B3154C2468BA
:101CB00004F4E064C4F5E064210AC1F10403CA40FD
:101CC000447804FA03F184781440214309010E4C4E
:101CD0000678A155047804F01F050124AC4005786E
:101CE0006D11AD0005F1E025C5F8004109E004786B
:101CF00004F01F050124AC40044D0678761145F828
:101D0000264070BD0CED00E000E400E080E100E062
:101D100002490143024A1160704700000000FA05C1
:101D20000CED00E070B5002418E004F1B0000021D3
:101D300000F029FA0021084600F025FA00211020C1
:101D400000F021FA002505E00121002000F01BFA37
:101D5000681CC5B2802DF7DB601CC4B2082CE4DB24
:101D600070BD00002DE9F04780460E4691461F46A3
:101D700000250024A9F12000C5B2B8F17F0F02DDD3
:101D8000A046B01CC6B2102F24D13146404600F008
:101D900051F9002408E004EB05113A4A505C012196
:101DA00000F0F1F9601CC4B2082CF4DB701CC1B265
:101DB000404600F03FF9002409E004EB051108312A
:101DC000304A505C012100F0DEF9601CC4B2082CDE
:101DD000F3DB55E0082F14D1701CC1B2404600F06F
:101DE00029F900240AE005EB4501274A02EB4101ED
:101DF000085D012100F0C7F9601CC4B2062CF2DBBB
:101E00003EE0182F3CD13146404600F013F9002443
:101E10000AE005EB450104EB01111A4A505C01216F
:101E200000F0B1F9601CC4B2102CF2DB701CC1B21E
:101E3000404600F0FFF800240BE005EB450104EB01
:101E4000011110310F4A505C012100F09CF9601C17
:101E5000C4B2102CF1DBB01CC1B2404600F0EAF86D
:101E600000240BE005EB450104EB01112031054A8C
:101E7000505C012100F087F9601CC4B2102CF1DB2A
:101E8000BDE8F08780460008584400082DE9F05F5F
:101E900006460F4690461C46DDF828A04FF0000B82
:101EA000E11704EB5171C910A4EBC10131B920460F
:101EB000E11704EB5171C1F3C70506E02046E117B5
:101EC00004EB5171C910491CCDB23D4615E02946BD
:101ED000304600F0AFF8B1460BE059460BF1010B6C
:101EE0001AF80100012100F04EF909F1010000F09B
:101EF000FF09C145F1DB681CC5B2A542E7DBBDE8BF
:101F0000F09F000008B50121082000F059F91020C9
:101F10008DF8030003208DF802000002ADF80000E8
:101F200069464348FFF722FD4FF440714048FFF7F0
:101F3000AAFDC82001F034FB0021AE2000F023F9F7
:101F40000021084600F01FF90021102000F01BF9C5
:101F50000021402000F017F90021812000F013F942
:101F60000021CF2000F00FF90021A12000F00BF993
:101F70000021C82000F007F90021A62000F003F995
:101F80000021A82000F0FFF800213F2000F0FBF81E
:101F90000021D32000F0F7F80021084600F0F3F804
:101FA0000021D52000F0EFF80021802000F0EBF8B0
:101FB0000021D92000F0E7F80021F12000F0E3F83B
:101FC0000021DA2000F0DFF80021122000F0DBF819
:101FD0000021DB2000F0D7F80021402000F0D3F8EA
:101FE0000021202000F0CFF80021022000F0CBF8E3
:101FF00000218D2000F0C7F80021142000F0C3F864
:102000000021A42000F0BFF80021A62000F0BBF8BA
:102010000021AF2000F0B7F80021AF2000F0B3F8A6
:10202000FFF780FE0021084600F004F808BD00001C
:10203000000C014070B504460D4605F1B0000021CA
:1020400000F0A1F8102141EA1410002100F09BF8E3
:1020500004F00F00002100F096F870BD2DE9F0416A
:1020600080460E461546002731464046FFF7E2FF00
:1020700000240AE0124A02EB8511085D012100F0FC
:1020800082F8781CC7B2601CC4B2102CF2DB701C42
:10209000C1B24046FFF7CEFF00240CE06900491CA6
:1020A000074A02EB4111085D012100F06CF8781C31
:1020B000C7B2601CC4B2102CF0DBBDE8F081000098
:1020C000880200202DE9FF5F074691461E460E9DBF
:1020D0004FF0000A002435E0301B401EC1B20A2038
:1020E00001F0E4FDB9FBF0F00A21B0FBF1F201FBD5
:1020F0001208BAF1000F14D1701EA04211DDB8F120
:10210000000F0CD1AB4605EBDB71491001FB0471EC
:10211000C8B22B4620220199FFF724FE10E04FF0B1
:10212000010AAB4605EBDB71491001FB0471C8B233
:1021300008F13001CAB22B460199FFF713FE00BF28
:10214000601CC4B2B442C7DBBDE8FF9F2DE9F0417B
:1021500004460F461546984600260FE0AA5D434602
:1021600039462046FFF7FEFD04F10800C4B2782C82
:1021700002DD0024B81CC7B2701CC6B2A85D0028DE
:10218000ECD1BDE8F08170B504460D461DB1E0B25A
:1021900000F088FC02E0E0B200F06EFC70BD704719
:1021A00029B1064AD2690243044BDA6104E0034ACA
:1021B000D2698243014BDA6170470000001002408F
:1021C00029B1064A92690243044B9A6104E0034A2A
:1021D00092698243014B9A617047000000100240EF
:1021E00030B500210022002400232D4D6D6805F03C
:1021F0000C0121B1042905D0082923D105E0294D7E
:10220000056022E0274D05601FE0254D6D6805F44F
:102210007012234D6D6805F48034022505EB92425F
:102220001CB9214D554305600BE01D4D6D6805F44B
:1022300000351DB11C4D5543056002E0194D554355
:10224000056002E0174D056000BF00BF144D6D68CA
:1022500005F0F0010909154D6B5C0568DD4045602E
:102260000F4D6D6805F4E061090A104D6B5C45681F
:10227000DD4085600A4D6D6805F46051C90A0B4D5B
:102280006B5C4568DD40C560054D6D6805F44041F7
:10229000890B074D6B5CC568B5FBF3F5056130BD77
:1022A0000010024000127A0000093D00881B002047
:1022B000981B0020704710B500F002F810BD000018
:1022C0000CB50020019000903348006840F4803045
:1022D0003149086000BF3048006800F400300090C9
:1022E0000198401C0190009818B90198B0F5A06FB2
:1022F000F1D12948006800F4003010B101200090AD
:1023000001E0002000900098012843D12348006894
:1023100040F01000214908600846006820F00300E2
:1023200008600846006840F0020008601A484068EB
:10233000194948600846406848600846406840F4CB
:10234000806048600846406820F47C104860084679
:10235000406840F4E81048600846006840F080702B
:10236000086000BF0C48006800F000700028F9D039
:102370000948406820F00300074948600846406863
:1023800040F00200486000BF0348406800F00C00C5
:102390000828F9D10CBD00000010024000200240C6
:1023A000042808D14FF0E021096941F004014FF001
:1023B000E022116107E04FF0E021096921F00401FA
:1023C0004FF0E022116170477047000010B51348CC
:1023D000006840F001001149086008464068104953
:1023E00008400E494860084600680E4908400B49FD
:1023F00008600846006820F48020086008464068AD
:1024000020F4FE0048604FF41F008860FFF753FF80
:102410004FF000600449086010BD00000010024049
:102420000000FFF8FFFFF6FE08ED00E010B5012107
:10243000880700F07AF880B30121880700F066F879
:1024400016480068401C1549086015480068401C83
:1024500013490860084600683C2806D1002008603F
:1024600010480068401C0F4908600E4800683C286E
:1024700007D100200B4908600B480068401C0A493E
:10248000086009480068182807D10020064908603C
:1024900006480068401C0549086010BD801B0020EC
:1024A00044000020400000203C00002038000020B4
:1024B0007FB505460C4601210846FFF771FEADF8D1
:1024C0000850ADF804400020ADF80A00ADF8060051
:1024D00001A94FF0804000F043F801221146900717
:1024E00000F034F81C208DF8000000208DF8010069
:1024F00003208DF8020001208DF803006846FFF7E5
:10250000CFFB0121880700F004F87FBDCA43028297
:10251000704721B1028842F00102028004E0028883
:102520004FF6FE731A400280704730B50246002015
:1025300000230024158A05EA0103958905EA0104B0
:1025400013B10CB1012000E0002030BD1AB1838925
:102550000B43838102E083898B43838170470000B2
:10256000002202881D4B98420ED01D4B98420BD082
:10257000B0F1804F08D01B4B984205D01A4B9842BF
:1025800002D01A4B984204D14FF68F731A404B88F1
:102590001A43174B984207D0164B984204D04FF677
:1025A000FF431A40CB881A4302808B8883850B88AF
:1025B00003850A4B98420BD0094B984208D00E4B2A
:1025C000984205D00D4B984202D00D4B984201D154
:1025D0000B7A03860123838270470000002C0140A0
:1025E000003401400004004000080040000C00409E
:1025F0000010004000140040004001400044014031
:102600000048014010B540F22551044800F050F850
:1026100018B12021014800F029F810BD0038014010
:1026200010B540F225510E4800F042F8B8B10D48FF
:102630000088B0F5007F02D300200A4908800848CE
:10264000001D0088C1B2074802880088401C054B65
:102650001880054881542021014800F007F810BD7A
:102660000044004014000020A81B002001F4007268
:10267000B2F5007F00D100BFCA430280704721B18C
:10268000828942F40052828104E082894DF6FF7310
:102690001A408281704702460020B1F5007F00D1C8
:1026A00000BF13880B400BB1012000E000207047F1
:1026B00070B50246002400230025002040F66A166B
:1026C000B14200D100BFC1F3421501F01F03012642
:1026D00006FA03F3012D02D19689334006E0022D5C
:1026E00002D1168A334001E0968A33400C1201264B
:1026F00006FA04F41688344013B10CB1012000E04E
:10270000002070BDF0B503460024002600250020FF
:1027100040F66A17B94200D100BF1846C1F342140F
:1027200001F01F06012707FA06F5012C01D10C3034
:1027300004E0022C01D1103000E014301AB1076817
:102740002F43076002E00768AF430760F0BD000059
:102750002DE9F04786B005460E460024A24600BF8C
:10276000A1460027B08900B100BF2F462C8A4CF645
:10277000FF700440F08804432C82AC894EF6F310BD
:102780000440B08831890843718908430443AC810F
:10279000AC8A4FF6FF400440B0890443AC8201A8E4
:1027A000FFF71EFD1F48874202D1DDF810A001E0AF
:1027B000DDF80CA0A88900F4004040B10AEBCA0083
:1027C00000EB0A1031684900B0FBF1F807E00AEBB2
:1027D000CA0000EB0A1031688900B0FBF1F86420F0
:1027E000B8FBF0F004012009642101FB1089A889DD
:1027F00000F4004040B1322000EBC900B0FBF1F022
:1028000000F00700044308E0322000EB09106421C7
:10281000B0FBF1F000F00F0004432C8106B0BDE8DE
:10282000F087000000380140C1F308028280704741
:1028300000BFFEE710B586B0044601210420FFF773
:10284000BFFC01218803FFF7BBFC18208DF817009F
:102850004FF40070ADF8140003208DF8160005A9A0
:102860001E48FFF783F804208DF817000002ADF82A
:10287000140003208DF8160005A91848FFF776F814
:1028800001940020ADF810000C20ADF80E000020DF
:10289000ADF80C00ADF80A00ADF8080001A9104829
:1028A000FFF756FF01210E48FFF7E9FE012240F233
:1028B00025510B48FFF726FF25208DF80000012049
:1028C0008DF8030000208DF8010002208DF8020031
:1028D0006846FFF7E5F906B010BD000000080140AA
:1028E0000038014010B586B0044601210420FFF7EE
:1028F00067FC01214804FFF753FC18208DF81700EE
:102900000420ADF8140003208DF8160005A91E4818
:10291000FFF72CF804208DF817000820ADF81400FC
:1029200003208DF8160005A91748FFF71FF801943A
:102930000020ADF810000C20ADF80E000020ADF81E
:102940000C00ADF80A00ADF8080001A90F48FFF728
:10295000FFFE01210D48FFF792FE012240F22551B2
:102960000A48FFF7CFFE26208DF8000001208DF8E1
:10297000030000208DF801008DF802006846FFF783
:102980008FF906B010BD000000080140004400406F
:102990000FB430B5CBB0054601AC50A800904FF451
:1029A000947101A8009B4F9A00F092F800200090CB
:1029B0000BE014F8011B2846FFF736FF00BF40214B
:1029C0002846FFF768FE0028F9D020780028F0D1CB
:1029D0004BB030BC5DF814FB2DE9F04107460C46C6
:1029E000154600260DE014F8011B3846FFF71CFFC2
:1029F00000BF40213846FFF74EFE0028F9D0701C7A
:102A000086B2AE42EFDBBDE8F08110B501F05CFCB0
:102A100010BD10B501F094FC10BD00002DE9F0418F
:102A200005462C464FF480711248FFF72AF800261D
:102A30001CE0274607F08007802F04D1B9000D481D
:102A4000FFF721F804E04FF400710A48FFF719F886
:102A50006006040E4FF480710648FFF714F84FF437
:102A600080710448FFF70DF8701CC6B2082EE0DB39
:102A7000BDE8F081000C014010B50446FFF70CF8EA
:102A80007820FFF7CBFFFFF733F80020FFF7C6FFF2
:102A9000FFF72EF82046FFF7C1FFFFF729F8FFF7F1
:102AA00013F810BD10B50446FEF7F6FF7820FFF7C7
:102AB000B5FFFFF71DF84020FFF7B0FFFFF718F84C
:102AC0002046FFF7ABFFFFF713F8FEF7FDFF10BD41
:102AD0007CB5491E1C461546CDE90001044B6A46EB
:102AE0002146284600F0CCF8009A002111707CBDE8
:102AF000AF33000800487047A41B002002E008C85C
:102B0000121F08C1002AFAD170477047002001E067
:102B100001C1121F002AFBD1704700002DE9FF5FA1
:102B2000DDE90220010DDDF838B0024318D044F68B
:102B30001050A1F2FF3141430D140F98012820D00D
:102B4000A5EB0B00401C5FEA000A4FF00004474E63
:102B5000DFF81C91A046504616D5CAF1000728E0C0
:102B60000F98012443A2012808D0002100980F9B50
:102B7000C0E90021C0E90243BDE8FF9F6FEA0B01F5
:102B8000F4E7CBF10000DEE7074612E0F80707D0D4
:102B90002246334640464946FDF705FD80468946B4
:102BA0002246334610461946FDF7FDFC04460E4604
:102BB0007F10002FEAD1DDE90201BAF1000F424691
:102BC0004B4602DAFDF7EFFC01E0FDF75EFD04463F
:102BD0000E460022284BFDF7DFFD03D84FF0FF30F3
:102BE000014607E00022254B20463146FDF734FC24
:102BF000FDF7BAFD102409E0002C0ADB0A220023AD
:102C0000FDF78DFB019B30321A55641E50EA01021C
:102C1000F2D1641C019AC4F1110314440F9A012AE1
:102C200003D0012208430DD10AE0084304D000205C
:102C30004FF0110B0F9080E7A3EB0B056D1E0DE01D
:102C40005B4504DD4FF0000205F1010504E003DA05
:102C50004FF00002A5F10105002AECD000980F9971
:102C6000C0E90231C0E9004586E7000000002440C9
:102C70000000F03F300000000000F0430000E03FA3
:102C80002DE9FF4F95B09B468946064600250FE289
:102C9000252877D100242746F84A0121059400E031
:102CA000044316F8013F203B01FA03F01042F7D12C
:102CB00030782A2811D06FF02F033078A0F130023D
:102CC000092A16D8059A44F0020402EB820203EBAB
:102CD00042021044761C0590EFE759F8042B059248
:102CE000002A03DA504244F40054059044F00204F0
:102CF000761C30782E2816D116F8010F44F0040403
:102D00002A280DD06FF02F023078A0F13003092B64
:102D100009D807EB870302EB4303C718761CF3E7D8
:102D200059F8047B761C30786C280FD006DC4C28D0
:102D300017D068280DD06A2814D104E0742810D068
:102D40007A280FD10DE044F400140AE044F4801412
:102D500001E044F440147278824202D104F58014F8
:102D6000761C761C307866280BD013DC582877D078
:102D700009DC002875D04528F6D04628F4D047282D
:102D80001AD19DE118E0632835D0642879D06528F0
:102D900012D195E1702873D008DC6728F1D069283A
:102DA0006FD06E280DD06F2806D1B5E073282CD0D7
:102DB000752875D0782874D05A46179990476D1C9D
:102DC00075E1C4F30250022809D003280DD0D9F8C8
:102DD000001004280DD00D6009F1040967E1D9F84D
:102DE0000010EA17C1E90052F6E7D9F800100D808B
:102DF000F2E70D70F0E719F8041B8DF800100020C1
:102E00008DF80100EA46012003E059F804AB4FF0C9
:102E1000FF3061074FF0000102D40DE008F101011D
:102E20008846B9420FDA8045F8DB1AF80810002905
:102E3000F4D108E008F1010188468142FADB1AF872
:102E400008100029F6D105985B46A0EB080721463B
:102E50003846179A00F094FA284400EB080507E07A
:102E60004DE029E10DE01AF8010B5A4617999047F9
:102E7000B8F10108F7D25B4621463846179A13E1AC
:102E800042E00A220092C4F302524FF0000A022AE2
:102E900008D059F804CB032A4FEAEC710AD00DE0B0
:102EA00029E02AE009F1070121F00702F2E802C156
:102EB000914609E00FFA8CFC4FEAEC71042A03D129
:102EC0004FFA8CFC4FEAEC71002907DA0A46002120
:102ED000DCF1000C61EB02012D2202E0220504D599
:102EE0002B228DF80420012203E0E20701D02022EA
:102EF000F7E7904659E00A2102E010220DE0102188
:102F00004FF0000A00910BE010224FF0000A44F04D
:102F100004040827009203E008224FF0000A009200
:102F2000C4F30252022A05D059F804CB0021032A27
:102F300008D009E009F1070121F00702F2E802C117
:102F4000914605E01FFA8CFC042A01D10CF0FF0C1D
:102F50004FF00008220728D5702806D0009B83F088
:102F6000100353EA0A0305D00EE040228DF8042036
:102F7000012208E05CEA010206D030228DF804202C
:102F80008DF8050002229046009B83F0080353EA67
:102F90000A030AD15CEA010201D1620705D5302299
:102FA0008DF804204FF001087F1E582804D034A06B
:102FB00003900EA802900DE036A0F9E75346604654
:102FC000009AFDF7ACF984460398825C0298401E93
:102FD000029002705CEA0100F0D1029806A9081A7A
:102FE00000F1200A600702D524F4803400E00127B4
:102FF000574502DDA7EB0A0000E0002000EB0A01C4
:10300000009005984144401A0590E00306D45B46C1
:103010002146179A059800F0B3F90544002706E009
:1030200001A85A46C05D179990476D1C7F1C474503
:10303000F6DBE0030CD55B462146179A059800F0B5
:103040009FF9054404E030205A46179990476D1CBB
:103050000099481E00900029F5DC08E002980299CA
:103060005A460078491C0291179990476D1CBAF195
:103070000001AAF1010AF1DC65E100000928010064
:1030800030313233343536373839616263646566DE
:1030900000000000303132333435363738394142A0
:1030A000434445460000000000F058F90544761CF2
:1030B000307800287FF4ECAD19B02846BDE8F08FD9
:1030C000620700D4062709F1070222F0070CFCE88A
:1030D0000223E14603F000485FEA080C02D00FF239
:1030E000702C0DE05FEA045C02D50FF2682C07E05B
:1030F0005FEAC47C02D00FF2602C01E0AFF2700CEA
:103100004FF0FF3823F00043CDF850C065280CD0B5
:1031100006DC452809D046281DD047283DD13DE092
:10312000662818D067287ED138E00021112F01DBF6
:10313000112000E0781CCDE9000106A90EA8FFF7D8
:10314000EDFCDDE90F010E9A03910021009207F1D9
:10315000010A04914DE04FF000400097CDE90110C5
:1031600006A90EA8FFF7DAFCDDE90F0203920E9B19
:1031700011990022DDF80CA00093049211B9791C7A
:1031800000EB010AB7EB0A0004D4C0F1FF3007F1ED
:10319000010A0490AAEB0700019044E0012F00DA35
:1031A00001270021112F01DD112000E03846CDE973
:1031B000000106A90EA8FFF7B1FCDDE90F010E9A88
:1031C0000391002104910092BA4621070CD403997F
:1031D000514500DA8A46BAF1010F05DD009AAAF1DD
:1031E0000101515C302908D0B84202DA10F1040F15
:1031F00006DA0121CDE9011015E0AAF10101E9E7A4
:10320000002805DC049901440491AAEB000102E0C6
:10321000411C514500DD8A460499401A401C01902A
:103220004FF000400290200704D40198504501DB84
:10323000CDF8048000208DF84F0002980DF14F0763
:10324000B0F1004F25D02B200E9002984FF00208CD
:1032500000280CDA404202902D200E9007E00A214F
:103260000298FDF746F83031029007F8011DB8F1D9
:103270000001A8F10108F2DC02980028EFD1791EC4
:103280000E980870307800F0200040F0450007F8F4
:10329000020D12A8C01B00F107081498007800B1B5
:1032A000012000EB0A01019801EBE071059841440F
:1032B000401A401E0590E00306D45B462146179A4B
:1032C000059800F05DF805441498007818B15A4646
:1032D000179990476D1CE00324D55B462146179A49
:1032E000059800F04DF805441CE00498002807DB21
:1032F000DDE90301884203DD0098405C179901E095
:10330000179930205A469047049805F10105401C52
:1033100004900198401E019004D12E205A4617991E
:1033200090476D1CBAF10001AAF1010ADDDC05E04D
:1033300017F8010B5A46179990476D1CB8F1000118
:10334000A8F10108F4DC5B462146179A0598ABE624
:103350002D0000002B000000200000002DE9F041AE
:10336000044600251E461746880404D405E0394665
:103370002020B0476D1C641EF9D52846BDE8F081B9
:103380002DE9F041044600251E469046C80301D5AC
:10339000302700E02027880404D505E04146384660
:1033A000B0476D1C641EF9D52846BDE8F0814A6817
:1033B000002A06D00A68531C0B6010704868401E33
:1033C0004860704708B5002211461046FEF746FED9
:1033D000012200211020FEF741FE022200212020C0
:1033E000FEF73CFE032200213020FEF737FE0422C8
:1033F00000214020FEF732FE052200215020FEF77A
:103400002DFE062200216020FEF728FE0722002163
:103410007020FEF723FE342204212020FEF71EFE3A
:10342000352204213020FEF719FE362204214020E7
:10343000FEF714FE372204215020FEF70FFE044849
:1034400006237022042100906020FEF71FFD08BDB6
:103450006802002010B500F005F810BD10B500F0AE
:103460003FF810BD08B5572200212020FEF7F6FDD9
:10347000582200213020FEF7F1FD59220021402082
:10348000FEF7ECFD5A2200215020FEF7E7FD19223D
:1034900002210020FEF7E2FD1A2202211020FEF791
:1034A000DDFD582202212020FEF7D8FD55220421FF
:1034B0000020FEF7D3FD562204211020FEF7CEFD9A
:1034C000582204212020FEF7C9FD0448042340228D
:1034D000022100903020FEF7D9FC08BD68020020D0
:1034E00008B5572200212020FEF7B8FD5822002100
:1034F0003020FEF7B3FD592200214020FEF7AEFD3B
:103500005A2200215020FEF7A9FD19220221002095
:10351000FEF7A4FD1A2202211020FEF79FFD58227B
:1035200002212020FEF79AFD552204210020FEF7FB
:1035300095FD562204211020FEF790FD582204210B
:103540002020FEF78BFD0448062340220421009032
:103550003020FEF79BFC08BD6802002010B56FF01C
:103560000400FEF71DFF0A4800680A49B0FBF1F0AD
:10357000094908700846007800EB4001C1EBC01013
:103580004FF6FF7101EAC0000449088010BD000039
:103590000000002000127A00841B0020861B0020FF
:1035A00001460D4A12884A434FF0E0235A61002237
:1035B0009A6101221A6100BF4FF0E022106900F009
:1035C00001021AB100F48032002AF5D000224FF037
:1035D000E0231A619A617047861B002010B53E22D5
:1035E00000210846FEF73AFD3F2200211020FEF799
:1035F00035FD402200212020FEF730FD08233A222D
:1036000000213020FEF7AEFB412200213820FEF7DA
:1036100025FD422200214820FEF720FD4322002103
:103620005820FEF71BFD3E2202210020FEF716FD6A
:103630003F2202211020FEF711FD3A220221202014
:10364000FEF70CFD3B2202213020FEF707FD082388
:103650003A2202214020FEF785FB10230DA2022111
:103660004820FEF773FD442206210020FEF7F6FCF9
:10367000452206211020FEF7F1FC08233A220621FC
:103680002020FEF76FFB102305A206212820FEF75D
:103690005DFD10BD323032332F352F323500000042
:1036A000797171303833330008B5A44800680A28AE
:1036B0002BDBA34800680A2827DB10200423009096
:1036C000A048002102681820FEF7FCFC10232F22DE
:1036D00000213820FEF746FB102002230090974877
:1036E000002102684020FEF7EDFC10232F2200216C
:1036F0005020FEF737FB1020022300909048002155
:1037000002685820FEF7DEFC5EE08C4800680A285C
:103710002BDA8B4800680A2827DB1020042300904E
:103720008848002102681820FEF7CCFC10232F22C5
:1037300000213820FEF716FB1020012300907F485F
:10374000002102684020FEF7BDFC10232F2200213B
:103750004820FEF707FB1020022300907848002144
:1037600002685020FEF7AEFC2EE0744800680A287C
:103770002ADB734800680A2826DA10200423009008
:103780007048002102681820FEF79CFC10232F22AD
:1037900000213820FEF7E6FA102002230090674847
:1037A000002102684020FEF78DFC10232F2200210B
:1037B0005020FEF7D7FA1020012300906048002126
:1037C00002685820FEF77EFC5C4800680A2832DA5E
:1037D0005B4800680A282EDA10200423009059481C
:1037E000002102681820FEF76DFC10232F22002113
:1037F0003820FEF7B7FA1020012300904F4800212F
:1038000002684020FEF75EFC10232F220021482092
:10381000FEF7A8FA10200123002211460090502044
:10382000FEF750FC1020012300904548002102685B
:103830005820FEF747FC444800680A2809DB10209E
:10384000022300904048032102685020FEF73AFC12
:1038500014E03D4800680A2810DA102001230022F5
:10386000032100905020FEF72DFC10200123009032
:103870003548032102685820FEF724FC33480068CD
:103880000A2809DB10200223009030480321026837
:103890003820FEF717FC14E02C4800680A2810DADC
:1038A000102001230022032100903820FEF70AFC9B
:1038B0001020012300902548032102684020FEF7D4
:1038C00001FC234800680A2809DB1020022300902D
:1038D0001F48032102682020FEF7F4FB14E01C4877
:1038E00000680A2810DA102001230022032100902A
:1038F0002020FEF7E7FB102001230090134803214E
:1039000002682820FEF7DEFB10233A220321302034
:10391000FEF728FA10233A2203214820FEF722FA64
:10392000482205212820FEF799FB4922052138204D
:10393000FEF794FB00F08EFC08BD00003400002070
:10394000380000203000002044000020400000200B
:103950003C00002010B5232200212020FEF77EFB32
:10396000242200213020FEF779FB2522002140206F
:10397000FEF774FB262200215020FEF76FFB272262
:1039800002211020FEF76AFB282202212020FEF7E8
:1039900065FB292202213020FEF760FB2A2202214A
:1039A0004020FEF75BFB2B2202215020FEF756FB46
:1039B0002C2202216020FEF751FB102314A20621C5
:1039C0000020FEF7C3FB2D2206211020FEF746FB48
:1039D0002E2206212020FEF741FB06221146302030
:1039E000FEF73CFB072206214020FEF737FB312281
:1039F00006215020FEF732FB322206216020FEF71E
:103A00002DFB332206217020FEF728FB10BD00009D
:103A10002D2D000010B5512200211020FEF71EFBB5
:103A2000522200212020FEF719FB532200213020D2
:103A3000FEF714FB192200214020FEF70FFB1A228B
:103A400000215020FEF70AFB582200216020FEF7DB
:103A500005FB042206210020FEF700FB05220621BB
:103A60001020FEF7FBFA08233A2206212020FEF759
:103A700079F91F2204210020FEF7F0FA2022042108
:103A80001020FEF7EBFA08233A2204212020FEF74B
:103A900069F900F087FA00F0F9FA10BD10B55B2261
:103AA00000211020FEF7DAFA5C2200212020FEF728
:103AB000D5FA532200213020FEF7D0FA55220021FA
:103AC0004020FEF7CBFA562200215020FEF7C6FA1E
:103AD000582200216020FEF7C1FA042206210020AE
:103AE000FEF7BCFA052206211020FEF7B7FA0823DC
:103AF0003A2206212020FEF735F91F22042100205A
:103B0000FEF7ACFA202204211020FEF7A7FA0823C2
:103B10003A2204212020FEF725F900F065FA00F092
:103B200023FB10BD10B5002821D0114B0022001F2F
:103B3000196803E0814203D80A4649680029F9D18F
:103B400052B11368841A9C4204D100681844106072
:103B5000104602E0506000E0186039B102680B1AAC
:103B6000934203D10B681A4402604968416010BD5A
:103B70009C1B002010B5132204211020FEF76EFAC2
:103B8000142204212020FEF769FA15220421302096
:103B9000FEF764FA162204214020FEF75FFA17228E
:103BA00004215020FEF75AFA182204216020FEF763
:103BB00055FA10BD10B5FFF705FC10BD10B500F0AB
:103BC00081F810BD10B5FFF709FD10BDFFF7C6FC69
:103BD000FEF706F84FF4A060FEF79AF84FF4E130D4
:103BE000FEF728FE4FF4E130FEF77CFE42F20F7143
:103BF00041F61F40FEF75CFCFEF784F9FDF786FFF7
:103C0000FDF7C4F818E0FEF709F80C4800684FF417
:103C1000967190FBF1F201FB120068B9FDF7E0FC30
:103C2000FDF776FAFDF77CFDFDF766FBFDF730FE4C
:103C3000FDF718FCFEF776F8E5E70000801B002092
:103C4000F0B50B30154D20F007010024144A0FE0A9
:103C500003688B420BD38B4205D95E1A4318476821
:103C6000C3E9006700E04368136002C004E0021D7E
:103C700010680028ECD12046002802D1286808B13D
:103C80000020F0BD064A07481060074A121A22F0C9
:103C90000702C0E9002401202860D7E7A01B00200C
:103CA0009C1B0020C41D0020C01F002010B5024630
:103CB000012000E050430B00A1F10104E1B2F9D171
:103CC00010BD000008B5382200211820FEF7C6F903
:103CD000392200212820FEF7C1F9042200213820D2
:103CE000FEF7BCF9052200214820FEF7B7F938227B
:103CF00002211820FEF7B2F9392202212820FEF70E
:103D0000ADF93A2202213820FEF7A8F93B22022120
:103D10004820FEF7A3F9382204211820FEF79EF967
:103D2000392204212820FEF799F932220421382073
:103D3000FEF794F9332204214820FEF78FF9382248
:103D400006211820FEF78AF9392206212820FEF7DD
:103D500085F93C2206213820FEF780F93D22062114
:103D60004820FEF77BF904480823682206210090CA
:103D70005820FEF78BF808BD6802002008B53822ED
:103D800000211820FEF76AF9392200212820FEF7C9
:103D900065F9042200213820FEF760F90522002190
:103DA0004820FEF75BF9382202211820FEF756F969
:103DB000392202212820FEF751F93A220221382027
:103DC000FEF74CF93B2202214820FEF747F918483C
:103DD00004236822022100905820FEF757F8382269
:103DE00004211820FEF73AF9392204212820FEF791
:103DF00035F9322204213820FEF730F9332204212C
:103E00004820FEF72BF9382206211820FEF726F964
:103E1000392206212820FEF721F93C2206213820EC
:103E2000FEF71CF93D2206214820FEF717F908BDD0
:103E30006802002008B5382200211820FEF70EF98C
:103E4000392200212820FEF709F904220021382018
:103E5000FEF704F9052200214820FEF7FFF838227A
:103E600002211820FEF7FAF8392202212820FEF755
:103E7000F5F83A2202213820FEF7F0F83B22022121
:103E80004820FEF7EBF8382204211820FEF7E6F868
:103E9000392204212820FEF7E1F8322204213820BB
:103EA000FEF7DCF8332204214820FEF7D7F80E484D
:103EB00006236822042100905820FDF7E7FF3822EE
:103EC00006211820FEF7CAF8392206212820FEF71D
:103ED000C5F83C2206213820FEF7C0F83D22062115
:103EE0004820FEF7BBF808BD6802002008B538225C
:103EF00000211820FEF7B2F8392200212820FEF711
:103F0000ADF8042200213820FEF7A8F80522002190
:103F10004820FEF7A3F822480223682200210090DF
:103F20005820FDF7B3FF382202211820FEF796F83B
:103F3000392202212820FEF791F83A220221382066
:103F4000FEF78CF83B2202214820FEF787F8382242
:103F500004211820FEF782F8392204212820FEF7D8
:103F60007DF8322204213820FEF778F8332204212C
:103F70004820FEF773F8382206211820FEF76EF865
:103F8000392206212820FEF769F83C220621382034
:103F9000FEF764F83D2206214820FEF75FF808BDD1
:103FA0006802002038B5002400250E4800680A2168
:103FB00090FBF1F40B48006890FBF1F201FB120555
:103FC000102001232246042100902820FEF77AF8D1
:103FD000102001232A46042100903020FEF772F8B9
:103FE00038BD00002000002038B5002400250E4810
:103FF00000680A2190FBF1F40B48006890FBF1F295
:1040000001FB1205102001232246042100902820E4
:10401000FEF758F8102001232A4604210090302092
:10402000FEF750F838BD00002400002010B5FFF75F
:10403000A5FE10BD10B5FFF737FB10BD10B5FFF79B
:10404000F9FE10BD10B5FFF785FC10BD10B50E22AE
:1040500004211820FEF702F80F2204212820FDF782
:10406000FDFF102204213820FDF7F8FF1122042162
:104070004820FDF7F3FF122204215820FDF7EEFF40
:1040800010BD10B5FFF732FF10BD000008B5304875
:10409000006804281CD004DC002848D0012854D132
:1040A00029E0092835D00D284FD11D2206212820CE
:1040B000FDF7D4FF1E2206213820FDF7CFFF25484B
:1040C00008238022062100907020FDF7DFFE3DE0EE
:1040D0001B2206212820FDF7C1FF1C2206213820C3
:1040E000FDF7BCFF1C4808238022062100907020A9
:1040F000FDF7CCFE2AE0462206212820FDF7AEFF80
:10410000164808238022062100907020FDF7BEFE8D
:104110001CE0472206212820FDF7A0FF10480823B5
:104120008022062100907020FDF7B0FE0EE04622AE
:1041300006212820FDF792FF0A4808238022062145
:1041400000907020FDF7A2FE00E000BF00BF08BD98
:10415000180000204801002088000020680000208E
:10416000E80000204800002008B530480068042816
:104170001CD004DC002848D0012854D129E00928AB
:1041800035D00D284FD11D2206212820FDF766FFCE
:104190001E2206213820FDF761FF254808238022D2
:1041A000062100907020FDF771FE3DE01B220621E4
:1041B0002820FDF753FF1C2206213820FDF74EFF73
:1041C0001C4808238022062100907020FDF75EFE27
:1041D0002AE0462206212820FDF740FF1648082342
:1041E0008022062100907020FDF750FE1CE047223F
:1041F00006212820FDF732FF1048082380220621DF
:1042000000907020FDF742FE0EE046220621282095
:10421000FDF724FF0A480823802206210090702021
:10422000FDF734FE00E000BF00BF08BD1C00002009
:10423000480100208800002068000020E8000020DD
:104240004800002010B5FFF7E5FB10BD10B5FFF7E3
:1042500025FC10BD10B51B48006807282FD2DFE8E9
:1042600000F028040A10161C22004A2205214820CA
:10427000FDF7F4FE24E04B2205214820FDF7EEFE79
:104280001EE04C2205214820FDF7E8FE18E04D22F3
:1042900005214820FDF7E2FE12E04E2205214820CC
:1042A000FDF7DCFE0CE04F2205214820FDF7D6FE8D
:1042B00006E0502205214820FDF7D0FE00E000BFB7
:1042C00000BF10BD2800002008B55D220021172086
:1042D000FDF7C4FE5E2200212720FDF7BFFE5F220E
:1042E00000213720FDF7BAFE10230DA20021472040
:1042F000FDF72CFF10230CA202210020FDF726FF62
:1043000010230BA204210020FDF720FF0B480423FB
:104310005622022100904620FDF7B8FD08BD00009E
:104320005749464900000000706572666563740075
:10433000434D43432D33303100000000680200201C
:1043400008B55D2200211720FDF788FE5E220021BE
:104350002720FDF783FE5F2200213720FDF77EFE38
:1043600010230DA200214720FDF7F0FE10230CA220
:1043700002210020FDF7EAFE10230BA204210020F9
:10438000FDF7E4FE0B480623562204210090462048
:10439000FDF77CFD08BD00005749464900000000BC
:1043A0007065726665637400434D43432D3330314D
:1043B000000000006802002010B508220221202021
:1043C000FDF74CFE092202213020FDF747FE0A22AC
:1043D00002214020FDF742FE0B2202215020FDF772
:1043E0003DFE10BD10B5FCF73FFDFDF7F9F8FCF7F9
:1043F0008FFEFDF795F9FCF77FFFFDF749FAFDF712
:1044000031F8FDF78FFC10BD10B5FCF7D7FDFDF7B7
:10441000E7F8FCF77DFEFDF783F9FCF76DFFFDF78C
:1044200037FAFDF71FF8FDF77DFC10BD10B50A2225
:1044300002212020FDF712FE0B2202213020FDF781
:104440000DFE0C2202214020FDF708FE0D22022164
:104450005020FDF703FE10BD00000000000000002A
:10446000002F000000000700070000147F147F14D5
:1044700000242A7F2A12006264081323003649555B
:10448000225000000503000000001C224100000033
:1044900041221C000014083E08140008083E0808C9
:1044A000000000A060000008080808080000606024
:1044B0000000002010080402003E5149453E000063
:1044C000427F4000004261514946002141454B3145
:1044D000001814127F10002745454539003C4A4911
:1044E0004930000171090503003649494936000683
:1044F0004949291E000036360000000056360000EB
:104500000008142241000014141414140000412265
:10451000140800020151090600324959513E007C3D
:104520001211127C007F49494936003E4141412227
:10453000007F4141221C007F49494941007F090910
:104540000901003E4149497A007F0808087F0000C0
:10455000417F4100002040413F01007F081422417B
:10456000007F40404040007F020C027F007F040833
:10457000107F003E4141413E007F09090906003E8F
:104580004151215E007F09192946004649494931B8
:104590000001017F0101003F4040403F001F2040DB
:1045A000201F003F4038403F006314081463000799
:1045B0000870080700615149454300007F414100F0
:1045C00000552A552A55000041417F000004020190
:1045D000020400404040404000000102040000206E
:1045E00054545478007F48444438003844444420AC
:1045F00000384444487F00385454541800087E0959
:1046000001020018A4A4A47C007F08040478000020
:10461000447D4000004080847D00007F10284400DD
:104620000000417F4000007C04180478007C0804EE
:10463000047800384444443800FC2424241800182A
:10464000242418FC007C0804040800485454542016
:1046500000043F444020003C4040207C001C20409F
:10466000201C003C4030403C004428102844001CE2
:10467000A0A0A07C004464544C44141414141414DA
:10468000000000000000000000000000000000002A
:10469000000000F8000000000000003330000000BF
:1046A00000100C06100C06000000000000000000C6
:1046B00040C07840C0784000043F04043F04040038
:1046C000007088FC08300000001820FF211E000048
:1046D000F008F000E018000000211C031E211E005D
:1046E00000F00888700000001E21232419272110E3
:1046F00010160E0000000000000000000000000086
:10470000000000E01804020000000007182040002C
:1047100000020418E000000000402018070000001C
:10472000404080F0804040000202010F0102020080
:10473000000000F0000000000101011F0101010064
:10474000000000000000000080B0700000000000C9
:104750000000000000000000000101010101010152
:1047600000000000000000000030300000000000E9
:1047700000000000806018040060180601000000BE
:1047800000E010080810E000000F102020100F00BB
:10479000001010F8000000000020203F2020000042
:1047A000007008080888700000302824222130009A
:1047B00000300888884830000018202020110E00A2
:1047C0000000C02010F8000000070424243F24004B
:1047D00000F80888880808000019212020110E0020
:1047E00000E0108888180000000F112020110E0032
:1047F00000380808C83808000000003F000000002A
:104800000070880808887000001C222121221C00EA
:1048100000E010080810E0000000312222110F0013
:10482000000000C0C00000000000003030000000A8
:104830000000008000000000000080600000000018
:104840000000804020100800000102040810200031
:10485000404040404040400004040404040404007C
:104860000008102040800000002010080402010011
:10487000007048080808F000000000303601000011
:10488000C030C828E810E0000718272423140B00C4
:104890000000C038E0000000203C2302022738203E
:1048A00008F8888888700000203F202020110E0022
:1048B000C030080808083800071820202010080019
:1048C00008F808080810E000203F202020100F0002
:1048D00008F88888E8081000203F202023201800CE
:1048E00008F88888E8081000203F20000300000036
:1048F000C03008080838000007182020221E0200D7
:1049000008F808000008F808203F210101213F2095
:10491000000808F8080800000020203F20200000C0
:1049200000000808F8080800C08080807F000000B0
:1049300008F888C028180800203F200126382000E9
:1049400008F8080000000000203F20202020300050
:1049500008F8F800F8F80800203F003F003F20006A
:1049600008F830C00008F808203F200007183F0072
:10497000E01008080810E0000F10202020100F00A1
:1049800008F808080808F000203F21010101000094
:10499000E01008080810E0000F18242438504F00D9
:1049A00008F8888888887000203F2000030C302099
:1049B00000708808080838000038202121221C00D7
:1049C000180808F8080818000000203F2000000020
:1049D00008F808000008F808001F202020201F0009
:1049E0000878880000C83808000007380E01000069
:1049F000F80800F80008F800033C0700073C030033
:104A0000081868808068180820302C03032C302098
:104A10000838C800C83808000000203F2000000007
:104A200010080808C838080020382621202018005F
:104A3000000000FE020202000000007F4040400033
:104A4000000C30C000000000000000010638C0006B
:104A500000020202FE000000004040407F00000013
:104A60000000040202020400000000000000000038
:104A70000000000000000000808080808080808036
:104A8000000202040000000000000000000000001E
:104A900000008080808000000019242222223F2014
:104AA00008F8008080000000003F112020110E0057
:104AB0000000008080800000000E112020201100E6
:104AC000000000808088F800000E112020103F2098
:104AD0000000808080800000001F2222222213001C
:104AE000008080F0888888180020203F2020000067
:104AF0000000808080808000006B9494949360001C
:104B000008F8008080800000203F210000203F2026
:104B100000809898000000000020203F2020000026
:104B2000000000809898000000C08080807F000016
:104B300008F8000080808000203F24022D302000F3
:104B4000000808F8000000000020203F202000009E
:104B50008080808080808000203F20003F20003FB8
:104B60008080008080800000203F210000203F20C6
:104B70000000808080800000001F202020201F0077
:104B8000808000808000000080FFA12020110E00A6
:104B90000000008080808000000E112020A0FF8097
:104BA000808080008080800020203F212000010044
:104BB0000000808080808000003324242424190099
:104BC000008080E0808000000000001F20200000A6
:104BD0008080000000808000001F202020103F20E7
:104BE000808080000080808000010E300806010077
:104BF00080800080008080800F300C030C300F001C
:104C000000808000808080000020312E0E31200046
:104C1000808080000080808080818E701806010076
:104C200000808080808080000021302C2221300094
:104C300000000000807C020200000000003F4040B5
:104C400000000000FF00000000000000FF00000066
:104C50000002027C800000000040403F0000000095
:104C60000006010102020404000000000000000030
:104C7000004040404040404040404141414141406F
:104C80004040404040404040404040404040404024
:104C900040050202020202020202020202020202B3
:104CA00002202020202020202020200202020202B8
:104CB0000202909090909090101010101010101010
:104CC000101010101010101010101010020202021C
:104CD0000202888888888888080808080808080860
:104CE000080808080808080808080808020202025C
:104CF00040000000714C00084745542068747470EF
:104D0000733A2F2F6170692E73656E6976657273C1
:104D1000652E636F6D2F76332F77656174686572CA
:104D20002F6E6F772E6A736F6E3F6B65793D5342BE
:104D300048436277354D726D4F7236424C714E2644
:104D40006C6F636174696F6E3D6A69756A69616EE3
:104D500067266C616E67756167653D7A682D48618D
:104D60006E7326756E69743D630A0D0047455420C5
:104D700068747470733A2F2F6170692E73656E6951
:104D800076657273652E636F6D2F76332F7765614D
:104D9000746865722F6E6F772E6A736F6E3F6B65E6
:104DA000793D534248436277354D726D4F723642BA
:104DB0004C714E266C6F636174696F6E3D77656EE2
:104DC0007A686F75266C616E67756167653D7A6894
:104DD0002D48616E7326756E69743D630A0D00007F
:104DE00047455420687474703A2F2F6170692E6B98
:104DF0003738302E636F6D3A38382F3F6170703D11
:104E00006C6966652E74696D65266170706B657975
:104E10003D3130303033267369676E3D623539621B
:104E200063336566363139316562396637343764E4
:104E300064346538336339396632613426666F729B
:104E40006D61743D6A736F6E0A0D00006C4E000850
:104E500000000020A81B00000C0D00087859000875
:104E6000A81B0020180800000C2B0008500600A208
:104E70004A040001000A3101020304060708090080
:104E800001802880868E0CC0603097973060C00CFF
:104E90008E86800161713003060CE9E90C0603304F
:104EA00071610100E0F8FC1E060231100F071F1FA0
:104EB0003F3C787870707078383C0E411121101B9F
:104EC0003C0E0E8E4C7860C0C0800000233B3B330C
:104ED000332709080B0B0B0A0B073912805F1009E7
:104EE000B0E080A870D870A87170100E0F080F0B7A
:104EF0000A090D0B0D0D0A0A0C0020000611808214
:104F0000C6FC78202380C0571008C0F0F8F8F8F0ED
:104F1000E06010040F0F1F0120091D1B17171F1F32
:104F20000F0720100DE07028C87040C0D4386C38CE
:104F300074A0100E651407060466170704076515AC
:104F4000066013E0383E3005FCBC9C840B200F004B
:104F50003F01006131190F070301003E017F300B53
:104F6000E0F8F8FCFE7EBEDCF0E0C0100C6313033A
:104F700003030667170707070502130220336316AA
:104F80001D11210113202363134031030110401030
:104F90000453235360115E2406070757275759729D
:104FA0009801459372190125A1101FC024141020E7
:104FB0004484844420101424C000000324280804DE
:104FC0002221212204082824032F380C1050545287
:104FD000524C40484444380D310100092119312117
:104FE0002121321C00201006489424324A01440535
:104FF00032A45808E3340803152B4A2B1905F5157C
:105000005F12F0E07AFF6C700703070F1F3F7F10FD
:10501000080F1004244484649C40300FC8080828FA
:105020001860F81010080601824C201806010618B6
:1050300020408080100A404042CC0000FC04020462
:105040000B1104FCA1080F1040201F20404F4442C8
:10505000407F42444340C0100A60F80704E424241F
:1050600024FF040B11E404E2000D10FF00808145D1
:1050700029112F414181818010050000FE2201414C
:10508000050D1220031004601F02010007127F02A9
:105090000242827F9F2340420132FE06021140A05D
:1050A000100B804020100C0300030C10FF051000B3
:1050B000400620104C4754010C041BD40404AB03DD
:1050C0000005100F3040F0BF2008FC848484FC00F1
:1050D0001001040410FF101040123F19163FB800D1
:1050E0000412064080C0300920102CE7242400F070
:1050F0003E01115F192C000C117F211100070202E3
:10510000FF0202079614040202C22023FE82010657
:1051100012022053407F042101F1D5200C08088899
:10512000C8380C0B0808E8080101105F10060100E0
:10513000FF404101227F05011040000E1102FE9246
:1051400092FE0200101116F01413FF041011101F2C
:105150000808FF048141310D030D314181FF4006F4
:105160000222428272050912012AFFC22A0EC706D4
:10517000134E41100400F888011165080612080951
:105180000AC80840040D110010201F804021161885
:105190002641F8001308F804357F051280131030FB
:1051A000C2080A118848300E014080403F802D3FE0
:1051B000031A443E1A7F4606104420080D120000D0
:1051C0007F201000FF151515559500080A1602E2FC
:1051D00022F22EE222E21240000B14FF003F003FB9
:1051E00080FF000146FF1E00F4042C04E00204FBD3
:1051F000030D11DF032A00FC37003FFE0405107881
:1052000000010E002009042322262A22FA24070A7C
:10521000100241100C010909091969090949897D20
:105220000A06110121080E1388C433404848487FFC
:1052300048C8484840402C0500020A32BF0302110A
:105240000260097EC00C0E110414A444AF140404BF
:1052500004F40F244401047806124984423FBF0934
:1052600010C011BB2E9202031E063F050D12400511
:105270000C0E1108180F080804FF04844027182793
:1052800080051C04905234FA032806345280708F33
:105290008AF1200C0E11829A566322528E008040B1
:1052A000330C33C0052D380423900084000510F220
:1052B00092929E6015772E0104030C0612FC44475F
:1052C0004444E0055DB9040D137D042D40034C04F6
:1052D00040201877042945061078FF140560020C59
:1052E000C03F2604000D11FF05200604047C0320A6
:1052F00001323F060113810C081498A44744A454BA
:105300000C7E050C0D1781898944444A312111090D
:10531000050300060F16C242000610070020702881
:105320002423800C0514242830E0830921172D50F4
:10533000070D121F071D20031D40036DBB050D1136
:1053400040031DC0037DC0060B1122E2C1115A109B
:10535000050912007F050D1301061540378C00C0AA
:105360001D48050D117506100A04047E01407E4299
:10537000427E020F12427E60041EFC7D072005FC67
:10538000252624080910C00C0E1140308F80844C53
:1053900055252525554C8000070410101010D0FF0E
:1053A00090100042E2524AC64240C0C01E0382042E
:1053B0000C081323108C4320184701052D01081CED
:1053C000060808C839CE4A050E108840061DE309B4
:1053D0000C0D4FFF040201FF4021060A112040C0BE
:1053E00007013E401E8079044D7D042D43070D11B9
:1053F00041051E805C0965C90D5180054D80091E5F
:105400000045082D47080D13E1052D410631420CDA
:1054100004144140708005200400BEAA010A11BE98
:10542000C05D80050E161280052DFE03080C10903D
:1054300020988888E98E8888A898E01B4281FC0C17
:10544000081280844B28102847BF090D3D00093DF4
:10545000770A1D85091E4B43060E11C88008040EED
:1054600011000F04040F0030484442424140002C18
:10547000044030CFF80A040815FC24E4242223E277
:105480003F1D450A1C0480412600080D12E1031F40
:1054900008283B0B1EFF08090212687F2C042121FB
:1054A000117A040C0914FF03050911112121810847
:1054B0001C048C8A8985080E15F8E30D43FF44010E
:1054C00009134123104C1B3345C6220F11540CA065
:1054D0000B313C127F1D0F126444E0042D42092C55
:1054E000040202E2040A0D15620E2E4701030404B1
:1054F00013081020BF2F00F83D071EF827042D0ABF
:105500000905123F1DC90C2E21FF040E134300098B
:105510008E1081060D13C1042F044481062C054210
:105520003A4282E404F2827F1004F212FE0204097D
:1055300011F20000BE2AEA2A3E3D0C0E134A4948E9
:105540004949FF004249497F494940043007CC009E
:10555000808888FF030E1580C00C040814504C434B
:1055600040405F40401DD8050F15E21C1C065E0040
:105570003F0C1D950D0F120C30400C1C0900002231
:10558000322AA6A262A0060E11811E091D81071CE7
:105590000822130B42827E0284030F1123469F06CA
:1055A000000F1030AC63300088C8A8998E88A8C856
:1055B000885E4C056722121284041D81070E10714B
:1055C000800A0C0D114424A4948C84FF848C94A430
:1055D00024800A1DB507435F4A01051300200A20F5
:1055E000222A2AAA6A3A2E29010D11A0072E08BDE7
:1055F000053255010D1401050D3E0004080A15F889
:10560000010600F0121212F2C22D9A070C07141FA5
:105610001111111F00410D2D810E1D060F1E2402B8
:10562000070D1200074E01DC0723F949010214F9A6
:10563000C21C0554545655000E0D137F050C101155
:105640004030000339414145594141730008309FC2
:10565000052E7CDC0522FF05011341311F5DC00AC8
:105660000D12600F2EFE1B090D18C0040C061A80C7
:105670007F0101FFC0043DC308080420C03FC0C033
:105680000E121000102D20070C0813504844C3447C
:105690004850200F5C050040221A3C060C04150AF5
:1056A0001260C0080D19000D2DC0080E1C00000D61
:1056B0000C0616223E00809EC00A5C08004382420F
:1056C0003E404703050E13E77F0C0C0B10809E90A5
:1056D0009F909E20D817F0400D1DFF0B080D5080A5
:1056E000403E02023E108867186780401D00108E01
:1056F000FC010E0D130010061A3F011D000F4FDABA
:105700000605110D1301110C0916FF08108847300A
:105710000F0201111D3905110122EA050E11BF7F8B
:105720000A280448444BFA1D3C050C0511494D4913
:1057300061200B3C0808FFA8A8A8FF0887110E10DD
:10574000FF20080C0B14844437040414A744241FBE
:105750008111A280010F31C08002156208010F156E
:105760000C089F0C71010E11186110630484010F65
:1057700011C486800CA220010F133020800862041F
:10578000040211FE414F7F20400C1E21E00B0D1240
:10579000C111318042FC800E138480115C0440787A
:1057A00047040403146040A0000417222C38A01DF5
:1057B000800D2E06C0030C061301020C3870600821
:1057C0004DBF0A07118282BE51C241FE09133E5CE1
:1057D000061021620680C00D0E1306C00D7FFE016B
:1057E000C00D0511401F04C4DA0852FC040E11E676
:1057F00000032405FF405048001E471E100D1302F1
:10580000090C0C1120188680405F2020120488C0EB
:10581000146C0402020180060F1155FF7F101D7BDE
:105820000C1D7D101349FA0508041248E84C425E2D
:105830003F860D1D06120E5100800D1EE0200D202A
:105840000520C000FE050111E05E813F0C0E153FF2
:10585000430C2C062020FF2020C3122DC1120E1055
:10586000CAC0121C0A10301F88681F10209F4010E9
:105870000F112641A1122E08FF122389FA060D11DD
:105880007F0D051F003D40090C0613504EC8487F90
:10589000BF114D40093D3F090C06134F50505C406D
:1058A00080100C0B140082864A52A2524A868080D5
:1058B000101F0010E0071EFFE4070D111F083C0534
:1058C00020C20C80C4100C0614FC4442C3424006A3
:1058D0001D7F062E817B0E0614FFC00D3B80100D30
:1058E0003EC013057E406DE6061012B53B00080170
:1058F00002050083400008020306002D081006037D
:105900000407003D08100604010800BD20100E0524
:10591000090A01553400080606060235181D051946
:105920003C0403454081051304C520100609050BFE
:10593000015D202C080A0A0A05454200431A130992
:105940004D08100E0C0D0E0C0B2A00080D0C0F0D3F
:105950001308120E011006E54300080F0100066D42
:10596000094400080001DE0C87142D801B6D841B88
:08597000B004020406900000DF
:0400000508000145A9
:00000001FF
